:020000040800F2
:1000000000500020F13200087D1100088311000823
:10001000891100088F1100089511000800000000E8
:100020000000000000000000000000009B1100081C
:10003000A711000800000000B3110008BF1100085C
:1000400039330008393300083933000839330008E0
:1000500039330008393300083933000839330008D0
:1000600039330008393300083933000839330008C0
:1000700039330008393300083933000839330008B0
:1000800039330008393300083933000839330008A0
:100090003933000839330008393300083933000890
:1000A0003933000839330008393300083933000880
:1000B000CD110008393300083933000839330008FE
:1000C0003933000839330008393300083933000860
:1000D0003933000839330008393300083933000850
:1000E00039330008393300083933000800000000B4
:1000F0000000000000000000000000000000000000
:0C01000000000000000000005FF808F1A3
:10010C0010B5054C237833B9044B13B10448AFF345
:10011C0000800123237010BDBC00002000000000F3
:10012C00143C000808B5034B1BB103490348AFF35B
:10013C00008008BD00000000C0000020143C000836
:10014C0080B500AFAD4B1B68032B00F24D8101A2B3
:10015C0052F823F071010008B7010008850200086D
:10016C003D030008A64B05221A60A64B03221A6019
:10017C00A54B02221A60A24B1B68A44A1360A34B26
:10018C001B681A46A249A34803F004F903469AB225
:10019C004FF47A739F49A04802F039FF4FF47A70FC
:1001AC0000F09EFE954B01221A60012000F020FA0F
:1001BC00022000F01DFA012000F038F9934B1A6868
:1001CC00914B1B689A4203DD032000F07BF902E09F
:1001DC00022000F077F9914B1B68012B32D18B4B2D
:1001EC001B68013B894A1360884B1B68002B16DC8B
:1001FC00844B1B68854A1360804B02221A60834B28
:10020C001B681A468649834803F0C4F803469AB221
:10021C004FF47A737F49804802F0F9FE0EE07B4B75
:10022C001B681A467A497B4803F0B4F803469AB225
:10023C004FF47A737749784802F0E9FE4FF47A70FC
:10024C0000F04EFE002000F0D3F90346002B00F026
:10025C00CD806B4B1B681A4672496E4803F09AF8B6
:10026C0003469AB24FF47A736A496B4802F0CFFE98
:10027C00624B04221A60B9E0012000F0B9F90220A7
:10028C0000F0B6F9032000F0D1F8012000F01AF9C3
:10029C00624B1B68012B32D15C4B1B68013B5B4AE8
:1002AC0013605A4B1B68002B16DC574B1B68574AC4
:1002BC001360524B03221A60544B1B681A465A495E
:1002CC00544803F067F803469AB24FF47A735149D5
:1002DC00514802F09CFE0EE04C4B1B681A465049EC
:1002EC004C4803F057F803469AB24FF47A734949D5
:1002FC00494802F08CFE4FF47A7000F0F1FD0020BA
:10030C0000F076F90346002B72D03D4B1B681A4661
:10031C004449404803F03EF803469AB24FF47A73CE
:10032C003C493D4802F073FE344B04221A605FE0F6
:10033C00012000F05DF9022000F05AF9022000F0D3
:10034C0075F8012000F0BEF8344B1B68012B32D13C
:10035C002E4B1B68013B2D4A13602C4B1B68002B4A
:10036C0016D1274B1B68294A1360284B1B681A4669
:10037C002749284803F00EF803469AB24FF47A73D3
:10038C002449254802F043FE1C4B01221A600EE062
:10039C001E4B1B681A4624491E4802F0FBFF0346FD
:1003AC009AB24FF47A731B491B4802F030FE4FF49B
:1003BC007A7000F095FD002000F01AF90346002B2E
:1003CC0018D00F4B1B681A461649124802F0E2FF70
:1003DC0003469AB24FF47A730E490F4802F017FE97
:1003EC00064B04221A6005E000BF04E000BF02E0E7
:1003FC0000BF00E000BF00BF80BD00BFE8000020D0
:10040C00DC000020E0000020E4000020D8000020E8
:10041C002C3C000818010020DC010020FC0000200E
:10042C00383C0008443C0008583C000880B582B0B9
:10043C0000AF78607B68032B3AD801A252F823F006
:10044C005D04000875040008A50400088D0400086C
:10045C0001224FF48061194801F003FA01220821AE
:10046C00174801F0FEF924E000224FF48061134894
:10047C0001F0F7F901220821114801F0F2F918E016
:10048C0001224FF480610D4801F0EBF900220821A4
:10049C000B4801F0E6F90CE000224FF480610748AC
:1004AC0001F0DFF900220821054801F0DAF900E03B
:1004BC0000BF00BF0837BD4680BD00BF000801402B
:1004CC00000C014080B582B000AF78607B68032BD4
:1004DC0036D801A252F823F0F50400080B050008E9
:1004EC00370500082105000801221021174801F0EA
:1004FC00B8F901222021154801F0B3F921E00022BE
:10050C001021124801F0ADF9012220210F4801F011
:10051C00A8F916E0012210210C4801F0A2F90022E2
:10052C0020210A4801F09DF90BE000221021074818
:10053C0001F097F900222021044801F092F900E023
:10054C0000BF00BF0837BD4680BD00BF000C014096
:10055C0080B582B000AF78607B68032B3ED801A2D7
:10056C0052F823F0810500089B050008CF05000810
:10057C00B505000801224FF480611B4801F071F9A8
:10058C0001224FF48071194801F06BF927E0002229
:10059C004FF48061144801F064F901224FF480712A
:1005AC00124801F05EF91AE001224FF480610E4806
:1005BC0001F057F900224FF480710C4801F051F909
:1005CC000DE000224FF48061074801F04AF9002247
:1005DC004FF48071054801F044F900E000BF00BF02
:1005EC000837BD4680BD00BF000C0140000801402B
:1005FC0080B483B000AF7860094A7B6852F823302E
:10060C00012B06D1064A7B68002142F823100123F6
:10061C0000E0002318460C37BD4680BC704700BF75
:10062C00EC00002080B582B000AF78607B68032BB3
:10063C002ED801A252F823F05506000867060008D0
:10064C00790600088B0600080221144801F0F2F824
:10065C0003461A46124B1A601BE010210F4801F09A
:10066C00E9F803461A460E4B5A6012E001210D4878
:10067C0001F0E0F803461A46094B9A6009E00121A3
:10068C00064801F0D7F803461A46054BDA6000E03D
:10069C0000BF00BF0837BD4680BD00BF0008014049
:1006AC0028000020000C014080B582B000AF002370
:1006BC007B605DE0324A7B6852F8232031497B68CD
:1006CC0041F82320304A7B6852F823202C497B6860
:1006DC0041F823207868FFF7A5FF2A4A7B6852F877
:1006EC00232027497B6851F823309A423DD1244A74
:1006FC007B6852F8232024497B6851F823309A42B6
:10070C0033D1224A7B6852F823201F497B6851F869
:10071C0023309A4217D01C4A7B6852F823201B497D
:10072C007B6841F82320184A7B6852F82330002B51
:10073C001BD1174A7B68012142F82310154B4FF44B
:10074C0096721A6011E0134B1B68013B114A13603F
:10075C00104B1B68002B08D10B4A7B6852F82330D6
:10076C00002B02D10B4B64221A607B6801337B6037
:10077C007B68032B9EDD00BF00BF0837BD4680BDE4
:10078C00180000200800002028000020380000205D
:10079C00EC0000204800002080B582B000AF7860EB
:1007AC0000F0BAFB00F0D6FBFFF77EFF00BF083766
:1007BC00BD4680BD80B500AF00F048FD00F044F8A8
:1007CC0000F054F900F082F800F0CCF800F024F9B5
:1007DC000021144801F06AFD134801F0C5FC4FF4E8
:1007EC007A7000F07DFB114B05221A60104B03222E
:1007FC001A60104B02221A600F4B05221A600F4B25
:10080C0000221A600E4B01221A600E4B0A221A604B
:10081C0000F0FEF9FFF794FC00F078FA00F0A6F96E
:10082C00F6E700BF4C01002094010020DC00002002
:10083C00E0000020E4000020D8000020E8000020A8
:10084C00000000200400002080B590B000AF07F13C
:10085C00180328220021184602F094FD3B1D0022AB
:10086C001A605A609A60DA601A610223BB61012334
:10087C00BB621023FB6202237B630023BB634FF438
:10088C006013FB6307F11803184601F003F80346E5
:10089C00002B01D000F064F90F237B600223BB60B6
:1008AC000023FB604FF480633B6100237B613B1DA5
:1008BC000221184601F06EFA0346002B01D000F01D
:1008CC004FF900BF4037BD4680BD000080B586B0F3
:1008DC0000AF07F1080300221A605A609A60DA60D0
:1008EC003B4600221A605A601D4B4FF080421A6042
:1008FC001B4B3F225A601A4B00229A60184B42F253
:10090C000F72DA60164B00221A61154B00229A61A5
:10091C00134801F0D9FB0346002B01D000F020F95D
:10092C004FF48053BB6007F1080319460C4801F0E3
:10093C0025FF0346002B01D000F012F900233B6089
:10094C0000237B603B461946054802F0A3FA034698
:10095C00002B01D000F004F900BF1837BD4680BD54
:10096C009401002080B58AB000AF07F1200300226B
:10097C001A605A603B1D00221A605A609A60DA6055
:10098C001A615A619A61224B224A1A60204B3F220B
:10099C005A601F4B00229A601D4B40F2E732DA601E
:1009AC001B4B00221A611A4B00229A61184801F065
:1009BC002DFC0346002B01D000F0D2F800233B6243
:1009CC0000237B6207F120031946114802F062FAFA
:1009DC000346002B01D000F0C3F860237B6000239A
:1009EC00BB600023FB6000237B613B1D002219468A
:1009FC00074801F005FE0346002B01D000F0B0F8CB
:100A0C00034800F039FB00BF2837BD4680BD00BF4E
:100A1C004C0100200004004080B500AF114B124A7D
:100A2C001A60104B4FF416525A600E4B00229A600B
:100A3C000C4B0022DA600B4B00221A61094B0C2282
:100A4C005A61084B00229A61064B0022DA61054874
:100A5C0002F090FA0346002B01D000F081F800BFA1
:100A6C0080BD00BFDC0100200044004080B588B090
:100A7C0000AF07F1100300221A605A609A60DA6026
:100A8C00344B9B69334A43F020039361314B9B6990
:100A9C0003F02003FB60FB682E4B9B692D4A43F04F
:100AAC00040393612B4B9B6903F00403BB60BB688D
:100ABC00284B9B69274A43F008039361254B9B699C
:100ACC0003F008037B607B6800224FF487612248A7
:100ADC0000F0C7FE00224FF4A061204800F0C1FED8
:100AEC0013233B6100237B610123BB6107F11003DE
:100AFC0019461A4800F01AFD01233B6100237B6163
:100B0C000123BB6107F110031946134800F00EFDD9
:100B1C004FF487633B6101237B610023BB6102239C
:100B2C00FB6107F1100319460B4800F0FFFC4FF472
:100B3C00A0633B6101237B610023BB610223FB614A
:100B4C0007F110031946054800F0F0FC00BF2037F0
:100B5C00BD4680BD00100240000C01400008014061
:100B6C0080B400AF72B600BFFEE7000080B500AFE6
:100B7C00204B1B68072B3AD10120FFF739FD1E4B88
:100B8C001B681846FFF752FC0220FFF731FD0346A5
:100B9C00002B04D0184B1B680133174A1360164BFB
:100BAC001B68032B03DD144B01221A601BE0002091
:100BBC00FFF71EFD0346002B15D0104B1B681A4681
:100BCC000F49104802F0E6FB03469AB24FF47A73D1
:100BDC000C490D4802F01BFA084B1B680B4A1360BA
:100BEC00044B01221A600120FFF702FD00E000BF58
:100BFC0000BF80BDE800002000000020DC000020C9
:100C0C00643C000818010020DC010020D800002002
:100C1C0080B500AF394B1B680C2B2FD00C2B63DC31
:100C2C000A2B02D00B2B40D05EE00020FFF790FC8B
:100C3C000320FFF7DDFC0346002B57D0304B1B681D
:100C4C00012B03D12F4B1B68022B0FDC2C4B1B6889
:100C5C00042B0BD02A4B1B68072B0BD12A4B1B6880
:100C6C00012B03D0284B1B68032B03D1234B0C22E5
:100C7C001A603BE0214B0B221A6037E00320FFF790
:100C8C0067FC1F4B1B68022B0BD01D4B1B68052BE5
:100C9C0007D01B4B1B68072B2AD11B4B1B68022B45
:100CAC0026D1164B0A221A6022E00120FFF750FCD5
:100CBC00134B1B68012B03D1124B1B68022B0FDC4F
:100CCC000F4B1B68042B0BD00D4B1B68072B11D142
:100CDC000D4B1B68012B03D00B4B1B68032B09D14D
:100CEC00064B0C221A6005E000BF04E000BF02E0D6
:100CFC0000BF00E000BF00BF80BD00BF04000020AB
:100D0C00E8000020D80000200000002080B500AFD3
:100D1C00694B1B68062B00F08980062B00F3C380FF
:100D2C00042B02D0052B41D0BDE00220FFF760FC64
:100D3C000120FFF77BFB0120FFF75AFC0346002B39
:100D4C001AD05E4B1B6801335C4A13605B4B1B680B
:100D5C00092B02DD594B01221A60584B1B681A46AD
:100D6C005749584802F016FB03469AB24FF47A736F
:100D7C005449554802F04BF90020FFF739FC034663
:100D8C00002B00F092804C4B05221A604F4B1B68D5
:100D9C001A464F494B4802F0FDFA03469AB24FF4FB
:100DAC007A734849484802F032F97EE00220FFF796
:100DBC001FFC0320FFF73AFB0120FFF719FC034649
:100DCC00002B1AD0414B1B680133404A13603F4B38
:100DDC001B68092B02DD3D4B01221A603B4B1B6843
:100DEC001A463B49374802F0D5FA03469AB24FF4FB
:100DFC007A733449344802F00AF90020FFF7F8FB03
:100E0C000346002B53D0334B1B681A4632492D48EE
:100E1C0002F0C0FA03469AB24FF47A7329492A4871
:100E2C0002F0F5F8244B06221A6040E00220FFF78E
:100E3C00DFFB0220FFF7FAFA0120FFF7D9FB03468C
:100E4C00002B1AD0234B1B680133224A1360214B11
:100E5C001B68092B02DD1F4B01221A601D4B1B68FE
:100E6C001A461D49174802F095FA03469AB24FF4F8
:100E7C007A731449144802F0CAF80020FFF7B8FB43
:100E8C000346002B15D015490E4802F083FA034691
:100E9C009AB24FF47A730B490B4802F0B8F8064B30
:100EAC0007221A6005E000BF04E000BF02E000BFAB
:100EBC0000E000BF00BF80BDE8000020DC00002087
:100ECC00743C000818010020DC010020E000002028
:100EDC00883C0008E40000209C3C0008B03C000862
:100EEC0080B483B000AF78607B68084A82FB031241
:100EFC009210DB17D31A064A1360064B00221A60B5
:100F0C0000BF0C37BD4680BC704700BF6766666685
:100F1C0000010020FC00002080B483B000AF78609A
:100F2C000A4B1B68002B0BDD084B1B68013B074A67
:100F3C001360064B1B68002B02DC054B01221A6068
:100F4C0000BF0C37BD4680BC704700BF00010020BD
:100F5C00FC00002080B483B000AF78600A4B1B68A3
:100F6C00002B0BDD084B1B68013B074A1360064B3B
:100F7C001B68002B02DC054B01221A6000BF0C37EA
:100F8C00BD4680BC704700BF080100200401002052
:100F9C0080B485B000AF154B9B69144A43F0010334
:100FAC009361124B9B6903F00103BB60BB680F4B51
:100FBC00DB690E4A43F08053D3610C4BDB6903F0C1
:100FCC0080537B607B680A4B5B68FB60FB6823F09B
:100FDC00E063FB60FB6843F00073FB60044AFB6852
:100FEC00536000BF1437BD4680BC704700100240F0
:100FFC000000014080B584B000AF78607B681B684E
:10100C00B3F1804F13D10C4BDB690B4A43F0010356
:10101C00D361094BDB6903F00103FB60FB68002221
:10102C0000211C2000F04BFA1C2000F064FA00BFD9
:10103C001037BD4680BD00BF0010024080B485B0A3
:10104C0000AF78607B681B68094A93420BD1094B4F
:10105C00DB69084A43F00203D361064BDB6903F0FA
:10106C000203FB60FB6800BF1437BD4680BC7047B1
:10107C00000400400010024080B588B000AF7860DA
:10108C0007F1100300221A605A609A60DA607B68DC
:10109C001B680F4A934217D10E4B9B690D4A43F0C4
:1010AC00040393610B4B9B6903F00403FB60FB6827
:1010BC0040233B6102237B610223FB6107F1100398
:1010CC001946054800F032FA00BF2037BD4680BDF6
:1010DC0000040040001002400008014080B588B0B8
:1010EC0000AF786007F1100300221A605A609A6012
:1010FC00DA607B681B681B4A93422FD11A4BDB6961
:10110C00194A43F40033D361174BDB6903F4003302
:10111C00FB60FB68144B9B69134A43F00403936117
:10112C00114B9B6903F00403BB60BB6804233B6158
:10113C0002237B610323FB6107F1100319460B4863
:10114C0000F0F4F908233B6100237B610023BB61B1
:10115C0007F110031946054800F0E8F900BF2037E5
:10116C00BD4680BD00440040001002400008014014
:10117C0080B400AFFEE780B400AFFEE780B400AFF0
:10118C00FEE780B400AFFEE780B400AFFEE780B4AA
:10119C0000AF00BFBD4680BC704780B400AF00BF3D
:1011AC00BD4680BC704780B400AF00BFBD4680BC5C
:1011BC00704780B500AF00F08FF800BF80BD000015
:1011CC0080B500AF024801F013F900BF80BD00BF2D
:1011DC009401002080B586B000AF7860144A154B9E
:1011EC00D31A7B617B693B61134B1B68002B02D1CB
:1011FC00114B124A1A60104B1A687B6813443A69F7
:10120C009A4207D202F094F803460C221A604FF06F
:10121C00FF3309E0084B1B68FB60074B1A687B68BF
:10122C001344054A1360FB6818461837BD4680BD49
:10123C0000500020000400000C01002038020020A7
:10124C0080B400AF00BFBD4680BC704780B500AF16
:10125C00084B1B68074A43F010031360032000F08F
:10126C0023F90F2000F008F8FFF792FE0023184630
:10127C0080BD00BF0020024080B582B000AF786016
:10128C00124B1A68124B1B7819464FF47A73B3FB46
:10129C00F1F3B2FBF3F3184600F03BF90346002BD5
:1012AC0001D001230EE07B680F2B0AD8002279684D
:1012BC004FF0FF3000F003F9064A7B6813600023FF
:1012CC0000E0012318460837BD4680BD4C000020C5
:1012DC00540000205000002080B400AF054B1B7858
:1012EC001A46054B1B681344034A136000BFBD46E6
:1012FC0080BC7047540000202002002080B400AF56
:10130C00024B1B681846BD4680BC7047200200206B
:10131C0080B485B000AF78607B6803F00703FB6096
:10132C000C4BDB68BB60BA684FF6FF031340BB6025
:10133C00FB681A02BB68134343F0BF6343F40033EA
:10134C00BB60044ABB68D36000BF1437BD4680BC89
:10135C00704700BF00ED00E080B400AF044BDB68C9
:10136C001B0A03F007031846BD4680BC704700BF3C
:10137C0000ED00E080B483B000AF0346FB7197F939
:10138C000730002B0BDBFB7903F01F02064997F9A2
:10139C0007305B09012000FA02F241F8232000BF5C
:1013AC000C37BD4680BC704700E100E080B483B0D0
:1013BC0000AF03463960FB7197F90730002B0ADB4D
:1013CC003B68DAB20C4997F907301201D2B20B44E0
:1013DC0083F800230AE03B68DAB20849FB7903F092
:1013EC000F03043B1201D2B20B441A7600BF0C3728
:1013FC00BD4680BC704700BF00E100E000ED00E09E
:10140C0080B489B000AFF860B9607A60FB6803F013
:10141C000703FB61FB69C3F10703042B28BF0423FB
:10142C00BB61FB690433062B02D9FB69033B00E06B
:10143C0000237B614FF0FF32BB6902FA03F3DA43FE
:10144C00BB681A407B699A404FF0FF317B6901FA07
:10145C0003F3D9437B680B40134318462437BD462E
:10146C0080BC704780B582B000AF78607B68013B70
:10147C00B3F1807F01D301230FE00A4A7B68013B63
:10148C0053600F214FF0FF30FFF790FF054B002208
:10149C009A60044B07221A60002318460837BD4691
:1014AC0080BD00BF10E000E080B582B000AF786076
:1014BC007868FFF72DFF00BF0837BD4680BD80B5AB
:1014CC0086B000AF0346B9607A60FB7300237B6182
:1014DC00FFF742FF78617A68B9687869FFF790FF87
:1014EC00024697F90F3011461846FFF75FFF00BF11
:1014FC001837BD4680BD80B582B000AF0346FB7186
:10150C0097F907301846FFF735FF00BF0837BD467F
:10151C0080BD80B582B000AF78607868FFF7A2FF1D
:10152C00034618460837BD4680BD000080B48BB01A
:10153C0000AF7860396000237B6200233B6269E175
:10154C0001227B6A02FA03F3FB613B681B68FA69B0
:10155C001340BB61BA69FB699A4240F058813B6801
:10156C005B689A4A93425ED0984A934275D8984ADF
:10157C00934258D0964A93426FD8964A934252D08F
:10158C00944A934269D8944A93424CD0924A9342DB
:10159C0063D8924A934246D0904A93425DD8122B1C
:1015AC002AD8122B59D801A252F823F0331600086E
:1015BC000D1600081F1600086116000867160008B3
:1015CC0067160008671600086716000867160008FB
:1015DC0067160008671600086716000867160008EB
:1015EC0067160008671600086716000867160008DB
:1015FC001516000829160008794A934213D02CE0DE
:10160C003B68DB683B6229E03B68DB6804333B6288
:10161C0024E03B68DB6808333B621FE03B68DB6817
:10162C000C333B621AE03B689B68002B02D104230D
:10163C003B6213E03B689B68012B05D108233B629E
:10164C007B68FA691A6109E008233B627B68FA69D6
:10165C005A6103E000233B6200E000BFBB69FF2B33
:10166C0001D87B6801E07B6804337B61BB69FF2B8D
:10167C0002D87B6A9B0002E07B6A083B9B003B61C3
:10168C007B691A680F213B6901FA03F3DB431A40AB
:10169C00396A3B6901FA03F31A437B691A603B68A8
:1016AC005B6803F08053002B00F0B1804D4B9B69BD
:1016BC004C4A43F0010393614A4B9B6903F00103CD
:1016CC00BB60BB68484A7B6A9B08023352F82330E4
:1016DC00FB607B6A03F003039B000F2202FA03F307
:1016EC00DB43FA681340FB607B68404A934213D09B
:1016FC007B683F4A93420DD07B683E4A934207D0A9
:10170C007B683D4A934201D1032306E0042304E0A5
:10171C00022302E0012300E000237A6A02F00302B4
:10172C0092009340FA681343FB602F497B6A9B0835
:10173C000233FA6841F823203B685B6803F480337A
:10174C00002B06D02D4B1A682C49BB6913430B6038
:10175C0006E02A4B1A68BB69DB43284913400B602F
:10176C003B685B6803F40033002B06D0234B5A68AC
:10177C002249BB6913434B6006E0204B5A68BB6996
:10178C00DB431E4913404B603B685B6803F48013DA
:10179C00002B06D0194B9A681849BB6913438B6010
:1017AC0006E0164B9A68BB69DB43144913408B6007
:1017BC003B685B6803F40013002B21D00F4BDA68F5
:1017CC000E49BB691343CB6021E000BF000032100F
:1017DC000000311000002210000021100000121037
:1017EC0000001110001002400000014000080140F0
:1017FC00000C0140001001400014014000040140A5
:10180C000B4BDA68BB69DB4309491340CB607B6A3D
:10181C0001337B623B681A687B6A22FA03F3002B64
:10182C007FF48EAE00BF00BF2C37BD4680BC704726
:10183C000004014080B485B000AF78600B467B801B
:10184C007B689A687B881340002B02D00123FB73C2
:10185C0001E00023FB73FB7B18461437BD4680BCAC
:10186C00704780B483B000AF78600B467B80134622
:10187C007B707B78002B03D07A887B681A6103E03D
:10188C007B881A047B681A6100BF0C37BD4680BC8C
:10189C007047000080B586B000AF78607B68002B85
:1018AC0001D101236CE27B681B6803F00103002B60
:1018BC0000F08780924B5B6803F00C03042B0CD078
:1018CC008F4B5B6803F00C03082B12D18C4B5B68BD
:1018DC0003F48033B3F5803F0BD1894B1B6803F4C1
:1018EC000033002B6CD07B685B68002B68D1012324
:1018FC0046E27B685B68B3F5803F06D1804B1B6882
:10190C007F4A43F4803313602EE07B685B68002BC6
:10191C000CD17B4B1B687A4A23F480331360784BD1
:10192C001B68774A23F4802313601DE07B685B6897
:10193C00B3F5A02F0CD1724B1B68714A43F4802372
:10194C0013606F4B1B686E4A43F4803313600BE0DB
:10195C006B4B1B686A4A23F480331360684B1B681B
:10196C00674A23F4802313607B685B68002B13D0D9
:10197C00FFF7C4FC386108E0FFF7C0FC02463B6986
:10198C00D31A642B01D90323FAE15D4B1B6803F4D2
:10199C000033002BF0D014E0FFF7B0FC386108E006
:1019AC00FFF7ACFC02463B69D31A642B01D9032325
:1019BC00E6E1534B1B6803F40033002BF0D100E03D
:1019CC0000BF7B681B6803F00203002B63D04C4BF9
:1019DC005B6803F00C03002B0BD0494B5B6803F0E6
:1019EC000C03082B1CD1464B5B6803F48033002B93
:1019FC0016D1434B1B6803F00203002B05D07B6808
:101A0C001B69012B01D00123BAE13D4B1B6823F06C
:101A1C00F8027B685B69DB00394913430B603AE0E1
:101A2C007B681B69002B20D0364B01221A60FFF714
:101A3C0065FC386108E0FFF761FC02463B69D31A8C
:101A4C00022B01D903239BE12D4B1B6803F00203EE
:101A5C00002BF0D02A4B1B6823F0F8027B685B69E3
:101A6C00DB00274913430B6015E0264B00221A605C
:101A7C00FFF744FC386108E0FFF740FC02463B6985
:101A8C00D31A022B01D903237AE11D4B1B6803F0F7
:101A9C000203002BF0D17B681B6803F00803002BBA
:101AAC003AD07B689B69002B19D0174B01221A6026
:101ABC00FFF724FC386108E0FFF720FC02463B6985
:101ACC00D31A022B01D903235AE10D4B5B6A03F0A5
:101ADC000203002BF0D0012000F0D8FA1CE00A4BD6
:101AEC0000221A60FFF70AFC38610FE0FFF706FCD2
:101AFC0002463B69D31A022B08D9032340E100BFED
:101B0C000010024000004242800442429E4B5B6A3D
:101B1C0003F00203002BE9D17B681B6803F004037C
:101B2C00002B00F0A6800023FB75974BDB6903F0BC
:101B3C008053002B0DD1944BDB69934A43F08053B7
:101B4C00D361914BDB6903F08053BB60BB6801230D
:101B5C00FB758E4B1B6803F48073002B18D18B4BD9
:101B6C001B688A4A43F480731360FFF7C7FB386124
:101B7C0008E0FFF7C3FB02463B69D31A642B01D97B
:101B8C000323FDE0814B1B6803F48073002BF0D022
:101B9C007B68DB68012B06D17B4B1B6A7A4A43F0CE
:101BAC00010313622DE07B68DB68002B0CD1764BB4
:101BBC001B6A754A23F001031362734B1B6A724A4A
:101BCC0023F0040313621CE07B68DB68052B0CD14B
:101BDC006D4B1B6A6C4A43F0040313626A4B1B6A1D
:101BEC00694A43F0010313620BE0674B1B6A664AB8
:101BFC0023F001031362644B1B6A634A23F0040352
:101C0C0013627B68DB68002B15D0FFF777FB38611C
:101C1C000AE0FFF773FB02463B69D31A41F28832A4
:101C2C00934201D90323ABE0574B1B6A03F0020329
:101C3C00002BEED014E0FFF761FB38610AE0FFF7F0
:101C4C005DFB02463B69D31A41F28832934201D9BB
:101C5C00032395E04C4B1B6A03F00203002BEED1DF
:101C6C00FB7D012B05D1484BDB69474A23F08053A0
:101C7C00D3617B68DB69002B00F08180424B5B6891
:101C8C0003F00C03082B61D07B68DB69022B46D177
:101C9C003F4B00221A60FFF731FB386108E0FFF779
:101CAC002DFB02463B69D31A022B01D9032367E0B3
:101CBC00354B1B6803F00073002BF0D17B681B6A5B
:101CCC00B3F5803F08D1304B5B6823F400327B685E
:101CDC009B682D4913434B602B4B5B6823F47412A8
:101CEC007B68196A7B685B6A0B43274913434B601B
:101CFC00274B01221A60FFF701FB386108E0FFF760
:101D0C00FDFA02463B69D31A022B01D9032337E0B3
:101D1C001D4B1B6803F00073002BF0D02FE01C4B05
:101D2C0000221A60FFF7EAFA386108E0FFF7E6FADA
:101D3C0002463B69D31A022B01D9032320E0124B34
:101D4C001B6803F00073002BF0D118E07B68DB6993
:101D5C00012B01D1012313E00B4B5B68FB60FB688B
:101D6C0003F480327B681B6A9A4206D1FB6803F449
:101D7C0070127B685B6A9A4201D0012300E0002359
:101D8C0018461837BD4680BD001002400070004058
:101D9C006000424280B584B000AF786039607B68E7
:101DAC00002B01D10123D0E06A4B1B6803F0070321
:101DBC003A689A4210D9674B1B6823F007026549B1
:101DCC003B6813430B60634B1B6803F007033A68D3
:101DDC009A4201D00123B8E07B681B6803F0020330
:101DEC00002B20D07B681B6803F00403002B05D06C
:101DFC00594B5B68584A43F4E06353607B681B683B
:101E0C0003F00803002B05D0534B5B68524A43F494
:101E1C0060535360504B5B6823F0F0027B689B6807
:101E2C004D4913434B607B681B6803F00103002B87
:101E3C0040D07B685B68012B07D1474B1B6803F4D0
:101E4C000033002B15D101237FE07B685B68022BEC
:101E5C0007D1414B1B6803F00073002B09D1012300
:101E6C0073E03D4B1B6803F00203002B01D10123EF
:101E7C006BE0394B5B6823F003027B685B68364987
:101E8C0013434B60FFF73AFAF8600AE0FFF736FAB3
:101E9C000246FB68D31A41F28832934201D90323DC
:101EAC0053E02D4B5B6803F00C027B685B689B0076
:101EBC009A42EBD1274B1B6803F007033A689A420E
:101ECC0010D2244B1B6823F0070222493B681343B2
:101EDC000B60204B1B6803F007033A689A4201D051
:101EEC00012332E07B681B6803F00403002B08D04D
:101EFC00194B5B6823F4E0627B68DB68164913437B
:101F0C004B607B681B6803F00803002B09D0124B55
:101F1C005B6823F460527B681B69DB000E4913433A
:101F2C004B6000F021F802460B4B5B681B0903F079
:101F3C000F030A49CB5C22FA03F3094A1360094BDD
:101F4C001B681846FFF798F9002318461037BD4652
:101F5C0080BD00BF0020024000100240CC3C0008B5
:101F6C004C0000205000002090B48AB000AF2A4BE7
:101F7C003C1D0FCB84E80F0040F201233B80002373
:101F8C00FB610023BB6100237B6200237B61002388
:101F9C003B62224B5B68FB61FB6903F00C03042B77
:101FAC0002D0082B03D02DE01D4B3B622DE0FB69CA
:101FBC009B0C03F00F0307F12802134413F8243C85
:101FCC007B61FB6903F48033002B13D0134B5B68EC
:101FDC005B0C03F0010307F12802134413F8283CAF
:101FEC00BB617B690E4A02FB03F2BB69B2FBF3F3E4
:101FFC007B6204E07B690B4A02FB03F37B627B6A26
:10200C003B6202E0064B3B6200BF3B6A1846283736
:10201C00BD4690BC704700BFBC3C0008001002409D
:10202C0000127A0000093D0080B400AF024B1B681F
:10203C001846BD4680BC70474C00002080B500AFF0
:10204C00FFF7F2FF0246054B5B681B0A03F0070320
:10205C000349CB5C22FA03F3184680BD0010024002
:10206C00DC3C000880B500AFFFF7DEFF0246054BF5
:10207C005B68DB0A03F007030349CB5C22FA03F32A
:10208C00184680BD00100240DC3C000880B485B0CE
:10209C0000AF78600A4B1B680A4AA2FB03235B0A59
:1020AC007A6802FB03F3FB6000BFFB685A1EFA6000
:1020BC00002BF9D100BF00BF1437BD4680BC704760
:1020CC004C000020D34D621080B582B000AF786018
:1020DC007B68002B01D1012341E07B6893F83D30F4
:1020EC00DBB2002B06D17B68002283F83C20786899
:1020FC00FEF780FF7B68022283F83D207B681A681C
:10210C007B6804331946104600F020FC7B680122E2
:10211C0083F846207B68012283F83E207B680122ED
:10212C0083F83F207B68012283F840207B680122E2
:10213C0083F841207B68012283F842207B680122CE
:10214C0083F843207B68012283F844207B680122BA
:10215C0083F845207B68012283F83D200023184634
:10216C000837BD4680BD000080B485B000AF7860F4
:10217C007B6893F83D30DBB2012B01D001233AE0B0
:10218C007B68022283F83D207B681B68DA687B68D9
:10219C001B6842F00102DA607B681B68184A9342A4
:1021AC000ED07B681B68B3F1804F09D07B681B682D
:1021BC00144A934204D07B681B68134A934211D192
:1021CC007B681B689B6803F00703FB60FB68062BAE
:1021DC0010D07B681B681A687B681B6842F0010290
:1021EC001A6007E07B681B681A687B681B6842F002
:1021FC0001021A60002318461437BD4680BC704794
:10220C00002C0140000400400008004080B582B062
:10221C0000AF78607B68002B01D1012341E07B6823
:10222C0093F83D30DBB2002B06D17B68002283F89B
:10223C003C207868FEF702FF7B68022283F83D2081
:10224C007B681A687B6804331946104600F07EFBE5
:10225C007B68012283F846207B68012283F83E20AC
:10226C007B68012283F83F207B68012283F84020A1
:10227C007B68012283F841207B68012283F842208D
:10228C007B68012283F843207B68012283F8442079
:10229C007B68012283F845207B68012283F83D206E
:1022AC00002318460837BD4680BD000080B584B0B9
:1022BC0000AF786039603B68002B09D17B6893F8DC
:1022CC003E30DBB2012B14BF01230023DBB222E032
:1022DC003B68042B09D17B6893F83F30DBB2012BB0
:1022EC0014BF01230023DBB215E03B68082B09D196
:1022FC007B6893F84030DBB2012B14BF0123002321
:10230C00DBB208E07B6893F84130DBB2012B14BFE1
:10231C0001230023DBB2002B01D001235EE03B68DC
:10232C00002B04D17B68022283F83E2013E03B682B
:10233C00042B04D17B68022283F83F200BE03B681E
:10234C00082B04D17B68022283F8402003E07B68D1
:10235C00022283F841207B681B68012239681846E9
:10236C0000F074FD7B681B681E4A934207D17B68A2
:10237C001B685A6C7B681B6842F400425A647B6889
:10238C001B68184A93420ED07B681B68B3F1804FD0
:10239C0009D07B681B68144A934204D07B681B6885
:1023AC00124A934211D17B681B689B6803F00703A8
:1023BC00FB60FB68062B10D07B681B681A687B6877
:1023CC001B6842F001021A6007E07B681B681A6800
:1023DC007B681B6842F001021A6000231846103714
:1023EC00BD4680BD002C01400004004000080040A8
:1023FC0080B582B000AF78607B681B681B6903F006
:10240C000203022B22D17B681B68DB6803F00203FA
:10241C00022B1BD17B681B686FF002021A617B6870
:10242C0001221A777B681B689B6903F00303002B5E
:10243C0003D0786800F06FFA05E0786800F062FA73
:10244C00786800F071FA7B6800221A777B681B6849
:10245C001B6903F00403042B22D17B681B68DB6827
:10246C0003F00403042B1BD17B681B686FF0040280
:10247C001A617B6802221A777B681B689B6903F4DC
:10248C004073002B03D0786800F045FA05E07868BB
:10249C0000F038FA786800F047FA7B6800221A7767
:1024AC007B681B681B6903F00803082B22D17B682F
:1024BC001B68DB6803F00803082B1BD17B681B68C7
:1024CC006FF008021A617B6804221A777B681B681C
:1024DC00DB6903F00303002B03D0786800F01BFAD0
:1024EC0005E0786800F00EFA786800F01DFA7B6859
:1024FC0000221A777B681B681B6903F01003102BF2
:10250C0022D17B681B68DB6803F01003102B1BD1F6
:10251C007B681B686FF010021A617B6808221A77BF
:10252C007B681B68DB6903F44073002B03D078686D
:10253C0000F0F1F905E0786800F0E4F9786800F053
:10254C00F3F97B6800221A777B681B681B6903F020
:10255C000103012B0ED17B681B68DB6803F00103C0
:10256C00012B07D17B681B686FF001021A61786838
:10257C00FEF712F97B681B681B6903F08003802B44
:10258C000ED17B681B68DB6803F08003802B07D1BE
:10259C007B681B686FF080021A61786800F0E1FCC0
:1025AC007B681B681B6903F04003402B0ED17B68D2
:1025BC001B68DB6803F04003402B07D17B681B686A
:1025CC006FF040021A61786800F0B7F97B681B68FD
:1025DC001B6903F02003202B0ED17B681B68DB6882
:1025EC0003F02003202B07D17B681B686FF02002BF
:1025FC001A61786800F0ACFC00BF0837BD4680BD9E
:10260C0080B584B000AFF860B9607A60FB6893F86D
:10261C003C30012B01D10223ACE0FB68012283F892
:10262C003C207B680C2B00F29F8001A252F823F017
:10263C007126000875270008752700087527000803
:10264C00B1260008752700087527000875270008B3
:10265C00F326000875270008752700087527000861
:10266C0033270008FB681B68B968184600F0D0F9DE
:10267C00FB681B689A69FB681B6842F008029A6148
:10268C00FB681B689A69FB681B6822F004029A615C
:10269C00FB681B689969BB681A69FB681B680A436D
:1026AC009A6162E0FB681B68B968184600F016FA7C
:1026BC00FB681B689A69FB681B6842F400629A61AC
:1026CC00FB681B689A69FB681B6822F480629A613C
:1026DC00FB681B689969BB681B691A02FB681B685D
:1026EC000A439A6141E0FB681B68B968184600F020
:1026FC005FFAFB681B68DA69FB681B6842F008022A
:10270C00DA61FB681B68DA69FB681B6822F004025B
:10271C00DA61FB681B68D969BB681A69FB681B68BE
:10272C000A43DA6121E0FB681B68B968184600F0BF
:10273C00A9FAFB681B68DA69FB681B6842F4006243
:10274C00DA61FB681B68DA69FB681B6822F480623B
:10275C00DA61FB681B68D969BB681B691A02FB68E4
:10276C001B680A43DA6100E000BFFB68002283F8B3
:10277C003C20002318461037BD4680BD80B584B080
:10278C0000AF786039607B6893F83C30012B01D145
:10279C000223B3E07B68012283F83C207B68022291
:1027AC0083F83D207B681B689B68FB60FB6823F00B
:1027BC007703FB60FB6823F47F43FB607B681B683B
:1027CC00FA689A603B681B68B3F5005F3ED0B3F5BE
:1027DC00005F00F28780B3F5805F00F08580B3F571
:1027EC00805F7FD8702B1AD0702B7BD8602B50D089
:1027FC00602B77D8502B3CD0502B73D8402B58D013
:10280C00402B6FD8302B64D0302B6BD8202B60D062
:10281C00202B67D8002B5CD0102B5AD062E07B6841
:10282C0018683B6899683B685A683B68DB6800F03D
:10283C00EEFA7B681B689B68FB60FB6843F07703D0
:10284C00FB607B681B68FA689A604EE07B681868CE
:10285C003B6899683B685A683B68DB6800F0D7FABC
:10286C007B681B689A687B681B6842F480429A609C
:10287C003BE07B6818683B6859683B68DB681A4624
:10288C0000F04EFA7B681B685021184600F0A5FA40
:10289C002BE07B6818683B6859683B68DB681A4614
:1028AC0000F06CFA7B681B686021184600F095FA02
:1028BC001BE07B6818683B6859683B68DB681A4604
:1028CC0000F02EFA7B681B684021184600F085FA50
:1028DC000BE07B681A683B681B681946104600F0D1
:1028EC007CFA02E000BF00E000BF7B68012283F8A5
:1028FC003D207B68002283F83C20002318461037CB
:10290C00BD4680BD80B483B000AF786000BF0C378B
:10291C00BD4680BC704780B483B000AF786000BF08
:10292C000C37BD4680BC704780B483B000AF786074
:10293C0000BF0C37BD4680BC704780B483B000AF7D
:10294C00786000BF0C37BD4680BC704780B485B042
:10295C0000AF786039607B681B68FB607B68294A34
:10296C0093420BD07B68B3F1804F07D07B68264A2B
:10297C00934203D07B68254A934208D1FB6823F02D
:10298C007003FB603B685B68FA681343FB607B6811
:10299C001C4A93420BD07B68B3F1804F07D07B6805
:1029AC00194A934203D07B68184A934208D1FB68BA
:1029BC0023F44073FB603B68DB68FA681343FB60ED
:1029CC00FB6823F080023B685B691343FB607B6808
:1029DC00FA681A603B689A687B68DA623B681A6826
:1029EC007B689A627B68074A934203D13B681A69F9
:1029FC007B681A637B6801225A6100BF1437BD469D
:102A0C0080BC7047002C01400004004000080040CE
:102A1C0080B487B000AF786039607B681B6A23F0A4
:102A2C0001027B681A627B681B6A7B617B685B684E
:102A3C003B617B689B69FB60FB6823F07003FB6068
:102A4C00FB6823F00303FB603B681B68FA681343C5
:102A5C00FB607B6923F002037B613B689B687A69AE
:102A6C0013437B617B681C4A93420CD17B6923F036
:102A7C0008037B613B68DB687A6913437B617B6984
:102A8C0023F004037B617B68134A934211D13B69A9
:102A9C0023F480733B613B6923F400733B613B6817
:102AAC005B693A6913433B613B689B693A69134321
:102ABC003B617B683A695A607B68FA689A613B684B
:102ACC005A687B685A637B687A691A6200BF1C3744
:102ADC00BD4680BC704700BF002C014080B487B05D
:102AEC0000AF786039607B681B6A23F010027B684A
:102AFC001A627B681B6A7B617B685B683B617B68E5
:102B0C009B69FB60FB6823F4E043FB60FB6823F4E8
:102B1C004073FB603B681B681B02FA681343FB6045
:102B2C007B6923F020037B613B689B681B017A69FE
:102B3C0013437B617B681D4A93420DD17B6923F063
:102B4C0080037B613B68DB681B017A6913437B6103
:102B5C007B6923F040037B617B68144A934213D159
:102B6C003B6923F480633B613B6923F400633B6165
:102B7C003B685B699B003A6913433B613B689B690B
:102B8C009B003A6913433B617B683A695A607B68E6
:102B9C00FA689A613B685A687B689A637B687A69C1
:102BAC001A6200BF1C37BD4680BC7047002C014028
:102BBC0080B487B000AF786039607B681B6A23F4FF
:102BCC0080727B681A627B681B6A7B617B685B68BE
:102BDC003B617B68DB69FB60FB6823F07003FB6087
:102BEC00FB6823F00303FB603B681B68FA68134324
:102BFC00FB607B6923F400737B613B689B681B0261
:102C0C007A6913437B617B681D4A93420DD17B69C2
:102C1C0023F400637B613B68DB681B027A69134316
:102C2C007B617B6923F480637B617B68144A9342EC
:102C3C0013D13B6923F480533B613B6923F400536C
:102C4C003B613B685B691B013A6913433B613B6821
:102C5C009B691B013A6913433B617B683A695A6073
:102C6C007B68FA68DA613B685A687B68DA637B6870
:102C7C007A691A6200BF1C37BD4680BC704700BF22
:102C8C00002C014080B487B000AF786039607B685D
:102C9C001B6A23F480527B681A627B681B6A3B6157
:102CAC007B685B687B617B68DB69FB60FB6823F49A
:102CBC00E043FB60FB6823F44073FB603B681B68DC
:102CCC001B02FA681343FB603B6923F400533B611E
:102CDC003B689B681B033A6913433B617B680F4A53
:102CEC00934209D17B6923F480437B613B685B6928
:102CFC009B017A6913437B617B687A695A607B68B4
:102D0C00FA68DA613B685A687B681A647B683A69CE
:102D1C001A6200BF1C37BD4680BC7047002C0140B6
:102D2C0080B487B000AFF860B9607A60FB681B6A4A
:102D3C007B61FB681B6A23F00102FB681A62FB686B
:102D4C009B693B613B6923F0F0033B617B681B0192
:102D5C003A6913433B617B6923F00A037B617A690F
:102D6C00BB6813437B61FB683A699A61FB687A69BB
:102D7C001A6200BF1C37BD4680BC704780B487B058
:102D8C0000AFF860B9607A60FB681B6A23F0100230
:102D9C00FB681A62FB689B697B61FB681B6A3B6181
:102DAC007B6923F470437B617B681B037A69134353
:102DBC007B613B6923F0A0033B61BB681B013A6953
:102DCC0013433B61FB687A699A61FB683A691A6242
:102DDC0000BF1C37BD4680BC704780B485B000AFC7
:102DEC00786039607B689B68FB60FB6823F070033C
:102DFC00FB603A68FB68134343F00703FB607B6896
:102E0C00FA689A6000BF1437BD4680BC704780B426
:102E1C0087B000AFF860B9607A603B60FB689B6874
:102E2C007B617B6923F47F437B613B681A027B687F
:102E3C001A43BB6813437A6913437B61FB687A6955
:102E4C009A6000BF1C37BD4680BC704780B487B009
:102E5C0000AFF860B9607A60BB6803F01F03012211
:102E6C0002FA03F37B61FB681A6A7B69DB431A4045
:102E7C00FB681A62FB681A6ABB6803F01F03796867
:102E8C0001FA03F31A43FB681A6200BF1C37BD46F4
:102E9C0080BC704780B485B000AF786039607B68C7
:102EAC0093F83C30012B01D1022346E07B680122D0
:102EBC0083F83C207B68022283F83D207B681B68EA
:102ECC005B68FB607B681B689B68BB60FB6823F0DE
:102EDC007003FB603B681B68FA681343FB607B68FC
:102EEC001B68FA685A607B681B68164A93420ED0BE
:102EFC007B681B68B3F1804F09D07B681B68124A52
:102F0C00934204D07B681B68104A93420CD1BB6877
:102F1C0023F08003BB603B685B68BA681343BB60FB
:102F2C007B681B68BA689A607B68012283F83D2035
:102F3C007B68002283F83C20002318461437BD46DA
:102F4C0080BC7047002C0140000400400008004089
:102F5C0080B483B000AF786000BF0C37BD4680BC36
:102F6C00704780B483B000AF786000BF0C37BD46AB
:102F7C0080BC704780B582B000AF78607B68002B56
:102F8C0001D101233FE07B6893F83D30DBB2002B8D
:102F9C0006D17B68002283F83C207868FEF79EF807
:102FAC007B68242283F83D207B681B68DA687B6889
:102FBC001B6822F40052DA60786800F005F97B682F
:102FCC001B681A697B681B6822F490421A617B6843
:102FDC001B685A697B681B6822F02A025A617B685D
:102FEC001B68DA687B681B6842F40052DA607B6805
:102FFC0000221A647B68202283F83D207B68202203
:10300C0083F83E20002318460837BD4680BD80B5A6
:10301C008AB002AFF860B9603B601346FB800023B6
:10302C007B61FB6893F83D30DBB2202B7CD1BB6815
:10303C00002B02D0FB88002B01D1012375E0FB682B
:10304C0093F83C30012B01D102236EE0FB68012286
:10305C0083F83C20FB6800221A64FB68212283F869
:10306C003D20FEF74BF97861FB68FA889A84FB687F
:10307C00FA88DA84FB689B68B3F5805F08D1FB683B
:10308C001B69002B04D10023FB61BB68BB6103E00F
:10309C00BB68FB610023BB61FB68002283F83C200A
:1030AC002AE03B6800937B6900228021F86800F0DD
:1030BC0040F80346002B01D0032336E0FB69002BBC
:1030CC000BD1BB691B881A46FB681B68C2F308024C
:1030DC005A60BB690233BB6107E0FB691A78FB6875
:1030EC001B685A60FB690133FB61FB68DB8C9BB28C
:1030FC00013B9AB2FB68DA84FB68DB8C9BB2002B39
:10310C00CFD13B6800937B6900224021F86800F026
:10311C0010F80346002B01D0032306E0FB682022A5
:10312C0083F83D20002300E0022318462037BD46DB
:10313C0080BD80B584B000AFF860B9603B601346C9
:10314C00FB712CE0BB69B3F1FF3F28D0BB69002BAE
:10315C0007D0FEF7D3F802463B68D31ABA699A42F5
:10316C001DD2FB681B68DA68FB681B6822F4D072FE
:10317C00DA60FB681B685A69FB681B6822F0010265
:10318C005A61FB68202283F83D20FB68202283F8DB
:10319C003E20FB68002283F83C2003230FE0FB68F1
:1031AC001B681A68BB681340BA689A420CBF0123AB
:1031BC000023DBB21A46FB799A42C3D0002318468F
:1031CC001037BD4680BD000080B584B000AF78607C
:1031DC007B681B681B6923F440517B68DA687B6849
:1031EC001B680A431A617B689A687B681B691A43DF
:1031FC007B685B691343BB607B681B68DB6823F4EB
:10320C00B05323F00C037A681268B9680B43D3608F
:10321C007B681B685B6923F440717B689A697B68E7
:10322C001B680A435A617B681B682C4A934203D182
:10323C00FEF718FFF86002E0FEF700FFF860FA688E
:10324C0013469B0013449A001A447B685B689B00EE
:10325C00B2FBF3F3224AA2FB03235B091901FA68C0
:10326C0013469B0013449A001A447B685B689B00CE
:10327C00B2FBF3F21A4BA3FB02035B09642000FBC5
:10328C0003F3D31A1B013233154AA2FB03235B0948
:10329C0003F0F0031944FA6813469B0013449A0098
:1032AC001A447B685B689B00B2FBF3F20C4BA3FBEC
:1032BC0002035B09642000FB03F3D31A1B013233B6
:1032CC00074AA2FB03235B0903F00F027B681B6810
:1032DC000A449A6000BF1037BD4680BD00380140DB
:1032EC001F85EB510C480D490D4A002302E0D458C0
:1032FC00C4500433C4188C42F9D30A4A0A4C002334
:10330C0001E013600432A242FBD3FDF799FF00F0F9
:10331C0015F8FDF74FFA704700000020BC000020A4
:10332C00203D0008BC00002034020020FEE7000015
:10333C00014B1868704700BF5800002070B500267C
:10334C000C4D0D4C641BA410A64209D100F05CFC82
:10335C0000260A4D0A4C641BA410A64205D170BD70
:10336C0055F8043B98470136EEE755F8043B98476F
:10337C000136F2E7183D0008183D0008183D00081A
:10338C001C3D000803460244934200D1704703F8E9
:10339C00011BF9E70EB46FF0004100B59CB01DABFA
:1033AC0002900690079104910848094953F8042BA0
:1033BC000591006802A9019300F068F80022029BB5
:1033CC001A701CB05DF804EB03B070475800002075
:1033DC000802FFFF2DE9F0478E6882469E420C469C
:1033EC0090461F4638D88A8912F4906F32D02568DF
:1033FC0009690133A5EB010965694B4405EB4505EA
:10340C0005EBD5756D109D4238BF1D46530531D562
:10341C00294600F053FB064650B90C234FF0FF3001
:10342C00CAF80030A38943F04003A381BDE8F087BC
:10343C004A46216900F0CEFAA38923F4906343F045
:10344C008003A38126614E4426603E466561A5EB50
:10345C000905A560BE4200D93E4632464146206869
:10346C0000F0C6FAA36822689B1B32440020A360BC
:10347C002260DBE72A4600F07BFB06460028E1D100
:10348C005046216900F0CEFAC7E700002DE9F04F55
:10349C0098468B8907461B060D4614469DB00ED5E3
:1034AC000B6963B9402100F009FB2860286120B941
:1034BC000C233B604FF0FF30D1E040236B610023C5
:1034CC00099320238DF8293030234FF00109CDF8D2
:1034DC000C80DFF8A4818DF82A3023469A4613F825
:1034EC00012B0AB1252AF9D1BAEB040B0BD05B46A0
:1034FC00224629463846FFF76DFF013000F0AA80BE
:10350C00099A5A4409929AF80030002B00F0A280D4
:10351C0000234FF0FF32CDE905230AF1010A049391
:10352C0007938DF853301A935446052214F8011B57
:10353C00514800F041FA049AD8B9D00644BF202370
:10354C008DF85330110744BF2B238DF853309AF864
:10355C0000302A2B15D0544600204FF00A0C079A45
:10356C00214611F8013B303B092B4ED9B0B10792E3
:10357C0014E0A0EB080309FA03F31343A2460493E7
:10358C00D2E7039B191D1B680391002BBBBF5B4249
:10359C0042F0020207930793B8BF049223782E2BB4
:1035AC000CD163782A2B35D1039B02341A1D1B686E
:1035BC000392002BB8BF4FF0FF330593DFF8C8A080
:1035CC0003225046217800F0F7F940B14023A0EBDC
:1035DC000A0003FA00F0049B01340343049314F82B
:1035EC00011B062225488DF8281000F0E5F900286B
:1035FC0038D0234B1BBB039B073323F00703083343
:10360C000393099B3344099367E70C4601200CFB99
:10361C000232A5E700234FF00A0C1946013405933A
:10362C00204610F8012B303A092A03D9002BC5D0BB
:10363C000591C3E7044601230CFB0121F0E703AB22
:10364C0000932A4638460F4B04A9AFF30080421C66
:10365C000646D6D1AB895B063FF52CAF09981DB059
:10366C00BDE8F08F03AB00932A463846054B04A9FE
:10367C0000F07CF8EBE700BFE43C0008EE3C0008EF
:10368C0000000000E1330008EA3C00082DE9F04797
:10369C00164699468A680B6907469342B8BF13468B
:1036AC00336091F843200C46DDF820800AB10133D9
:1036BC0033602368990642BF336802333360256850
:1036CC0015F0060506D104F1190AE36832689B1A55
:1036DC00AB4228DC94F84320131E226818BF012348
:1036EC0092062DD44946384604F14302C0470130B6
:1036FC0020D02368E56803F00603042B18BF0025CF
:10370C0032684FF00006A36808BFAD1A226908BFE3
:10371C0025EAE5759342C4BF9B1AED181A34B542DD
:10372C001AD1002008E00123524649463846C047CA
:10373C00013003D14FF0FF30BDE8F0870135C4E70D
:10374C003020E11881F843005A1C94F845102244AB
:10375C00023382F84310C5E7012322464946384616
:10376C00C0470130E6D00136D9E700002DE9FF470C
:10377C000C46277E9146782F80469A460C9904F188
:10378C00430207D8622F0AD8002F00F0D980582F97
:10379C0000F0A48004F1420684F842703AE0A7F1EC
:1037AC006303152BF6D801A050F823F0113800084C
:1037BC0025380008A1370008A1370008A1370008F8
:1037CC00A137000825380008A1370008A1370008E8
:1037DC00A1370008A1370008333900085538000814
:1037EC0015390008A1370008A13700085539000821
:1037FC00A137000855380008A1370008A137000888
:10380C001D3900080B6804F142061A1D1B680A607A
:10381C0084F842300123A4E0256808682E0600F1E4
:10382C0004030AD505680B60002D03DA2D236D42C5
:10383C0084F843300A235E4819E015F0400F056800
:10384C000B6018BF2DB2EFE70B682568181D0860D8
:10385C00280601D51D6802E06906FBD51D886F2F6F
:10386C000CBF08230A235248002184F843106668D1
:10387C00002EA8BF2168A660A4BF21F0040121601E
:10388C000DB9002E4DD01646B5FBF3F103FB1157C5
:10389C00C75D06F8017D2F46BB420D46F4D9082BB7
:1038AC000BD12368DF0708D5236961689942DEBF15
:1038BC00302306F8013C06F1FF36921B22614B4681
:1038CC0021464046CDF800A003AAFFF7DFFE0130E9
:1038DC004CD14FF0FF3004B0BDE8F087344884F889
:1038EC0045700E68236856F8045B1F060E6014D5ED
:1038FC00D90744BF43F0200323601DB9236823F08C
:10390C00200323601023AFE7236843F020032360D8
:10391C007823284884F84530E3E75E0648BFADB20B
:10392C00E6E71646BBE70B6826681D1D60690D604F
:10393C0035061B6801D5186002E07106FBD51880AE
:10394C00002316462361BAE70B681A1D0A601E682D
:10395C0000213046626800F02FF808B1801B6060CF
:10396C0063682361002384F84330A8E73246494654
:10397C0040462369D0470130ABD023689B0713D452
:10398C00E068039B9842B8BF1846A4E7012332466F
:10399C0049464046D04701309BD00135E368039936
:1039AC005B1AAB42F2DCEBE7002504F11906F5E7F4
:1039BC00F53C0008063D0008034610B5C9B20244A8
:1039CC009342184601D1002003E0047801338C4265
:1039DC00F6D110BD0A44914200F1FF3300D170477B
:1039EC0010B511F8014B914203F8014FF9D110BDFC
:1039FC00884210B501EB020402D98442234607D851
:103A0C00431EA14208D011F8012B03F8012FF8E74F
:103A1C00014602448A4200D110BD13F8014D02F850
:103A2C00014DF7E738B50546002943D051F8043C61
:103A3C000C1F002BB8BFE41800F0D0F81E4A136816
:103A4C00104633B9636014602846BDE8384000F076
:103A5C00CBB8A3420AD921686218934201BF1A68F5
:103A6C005B685218226063600460EDE71A465B687D
:103A7C000BB1A342FAD911685018A0420BD120689F
:103A8C000144501883421160DED118685B68014410
:103A9C0011605360D8E702D90C232B60D4E720685F
:103AAC0021188B4201BF19685B680918216063609B
:103ABC005460C9E738BD00BF10010020F8B5CD1C1B
:103ACC0025F0030508350C2D38BF0C25002D0646B6
:103ADC0001DBA94203D90C2333600020F8BD00F0B0
:103AEC007DF821490A6814469CB9204F3B6823B9DC
:103AFC002146304600F062F838602946304600F026
:103B0C005DF8431C23D10C233046336000F06CF875
:103B1C00E3E723685B1B17D40B2B03D923601C44EE
:103B2C00256004E06368A2420CBF0B605360304612
:103B3C0000F05AF804F10B00231D20F00700C21A04
:103B4C00CCD01B1AA350C9E722466468CCE7C41C2E
:103B5C0024F00304A042E3D0211A304600F02EF8E2
:103B6C000130DDD1CFE700BF10010020140100208F
:103B7C00F8B5074614460E4621B91146BDE8F84083
:103B8C00FFF79CBF22B9FFF74DFF25462846F8BD2D
:103B9C0000F030F8A0420FD221463846FFF78EFFD6
:103BAC0005460028F2D031462246FFF713FF314676
:103BBC003846FFF737FFE9E73546E7E738B5002326
:103BCC00054D044608462B60FDF704FB431C02D14F
:103BDC002B6803B1236038BD24020020014800F09B
:103BEC0011B800BF2C020020014800F00CB800BF37
:103BFC002C02002051F8043C181F002BBCBF0B58A2
:103C0C00C018704770477047F8B500BFF8BC08BCC7
:103C1C009E467047F8B500BFF8BC08BC9E4670477E
:103C2C007265643D25640D0A0000000067726565CD
:103C3C006E3D25640D0A000073657474696E675FD0
:103C4C007265643D25640D0A0000000079656C6C9A
:103C5C006F773D25640D0A006175746F5F72656442
:103C6C003D25640D0A00000073657474696E675F0E
:103C7C007265643D25640D0A000000007365747460
:103C8C00696E675F677265656E3D25640D0A00009D
:103C9C0073657474696E675F79656C6C6F773D25BD
:103CAC00640D0A006D616E75616C0D0A00000000F8
:103CBC0002030405060708090A0B0C0D0E0F101061
:103CCC0000000000000000000102030406070809C0
:103CDC000000000001020304232D302B2000686C2F
:103CEC004C00656667454647003031323334353613
:103CFC00373839414243444546003031323334354C
:0C3D0C0036373839616263646566000078
:043D1800310100086D
:043D1C000D0100088D
:103D2000010000000A000000010000000000000087
:103D30000000000000000000010000000000000082
:103D40000000000000000000010000000000000072
:103D50000000000000000000010000000000000062
:103D600000000000000000002C0100000024F4000E
:103D700010000000010000005C00002000000000B6
:103D80000000000000000000000000000000000033
:103D90000000000000000000000000000000000023
:103DA0000000000000000000000000000000000013
:103DB0000000000000000000000000000000000003
:103DC00000000000000000000000000000000000F3
:0C3DD000000000000000000000000000E7
:04000005080032F1CC
:00000001FF
