:020000040800F2
:100000000050002011130008351200083B120008B0
:1000100041120008471200084D12000800000000BD
:100020000000000000000000000000005312000863
:100030005F120008000000006B1200087712000831
:1000400059130008591300085913000859130008E0
:1000500059130008591300085913000859130008D0
:1000600059130008591300085913000859130008C0
:1000700059130008591300085913000859130008B0
:1000800059130008591300085913000859130008A0
:100090005913000859130008591300085913000890
:1000A0005913000859130008591300085913000880
:1000B0008512000859130008591300085913000845
:1000C0005913000859130008591300085913000860
:1000D0005913000859130008591300085913000850
:1000E00059130008591300085913000800000000B4
:1000F0000000000000000000000000000000000000
:0C01000000000000000000005FF808F1A3
:10010C0010B5054C237833B9044B13B10448AFF345
:10011C0000800123237010BDBC00002000000000F3
:10012C004C3D000808B5034B1BB103490348AFF322
:10013C00008008BD00000000C00000204C3D0008FD
:10014C0080B500AFAA4B1B68032B00F24E8101A2B5
:10015C0052F823F071010008B7010008850200086D
:10016C003F030008A34B05221A60A34B03221A601D
:10017C00A24B02221A609F4B1B68A14A1360A04B32
:10018C001B681A469F49A04803F060F903469AB2CF
:10019C004FF47A739C499D4802F0BBFF4FF47A7080
:1001AC0000F0C0FE924B01221A60012000F022FAEE
:1001BC00022000F01FFA012000F03AF9904B1A6867
:1001CC008E4B1B689A4203DD032000F07DF902E0A0
:1001DC00022000F079F98E4B1B68012B32D1884B31
:1001EC001B68013B864A1360854B1B68002B16DC91
:1001FC00814B1B68824A13607D4B02221A60804B34
:10020C001B681A468349804803F020F903469AB2CA
:10021C004FF47A737C497D4802F07BFF0EE0784BFB
:10022C001B681A467749784803F010F903469AB2CE
:10023C004FF47A737449754802F06BFF4FF47A707F
:10024C0000F070FE002000F0D5F90346002B00F002
:10025C00E780684B1B681A466F496B4803F0F6F849
:10026C0003469AB24FF47A736749684802F051FF1B
:10027C005F4B04221A60D3E0012000F0BBF902208E
:10028C0000F0B8F9032000F0D3F8012000F01CF9BD
:10029C005F4B1B68012B32D1594B1B68013B584AF1
:1002AC001360574B1B68002B16DC544B1B68544ACD
:1002BC0013604F4B03221A60514B1B681A46574967
:1002CC00514803F0C3F803469AB24FF47A734E497F
:1002DC004E4802F01EFF0EE0494B1B681A464D4972
:1002EC00494803F0B3F803469AB24FF47A7346497F
:1002FC00464802F00EFF4FF47A7000F013FE002017
:10030C0000F078F90346002B00F08C80394B1B6809
:10031C001A4641493C4803F099F803469AB24FF407
:10032C007A733949394802F0F4FE314B04221A60D1
:10033C0078E0012000F05EF9022000F05BF9022069
:10034C0000F076F8012000F0BFF8314B1B68012B50
:10035C0032D12B4B1B68013B294A1360284B1B687D
:10036C00002B16D1234B1B68254A1360244B1B68AA
:10037C001A462449244803F069F803469AB24FF40C
:10038C007A732149214802F0C4FE194B01221A60EC
:10039C000EE01B4B1B681A4620491B4803F056F80D
:1003AC0003469AB24FF47A731749184802F0B1FE1B
:1003BC004FF47A7000F0B6FD002000F01BF90346F4
:1003CC00002B31D00B4B1B681A4613490E4803F017
:1003DC003DF803469AB24FF47A730B490B4802F07E
:1003EC0098FE034B04221A601EE000BF1DE000BF04
:1003FC001C01002010010020140100201801002015
:10040C000C010020643D0008D8000020C001002031
:10041C0004020020703D00087C3D0008903D00085F
:10042C0000BF02E000BF00E000BF00BF80BD00BF06
:10043C0080B582B000AF78607B68032B3AD801A2FC
:10044C0052F823F06104000879040008A90400089C
:10045C009104000800224FF48061194801F083FADE
:10046C0000220821174801F07EFA24E001224FF403
:10047C008061134801F077FA00220821114801F03D
:10048C0072FA18E000224FF480610D4801F06BFA0B
:10049C00012208210B4801F066FA0CE001224FF40E
:1004AC008061074801F05FFA01220821054801F03C
:1004BC005AFA00E000BF00BF0837BD4680BD00BF40
:1004CC0000080140000C014080B582B000AF78609C
:1004DC007B68032B36D801A252F823F0F9040008EC
:1004EC000F0500083B050008250500080022102117
:1004FC00174801F038FA00222021154801F033FA90
:10050C0021E000221021124801F02DFA01222021B5
:10051C000F4801F028FA16E0012210210C4801F0D6
:10052C0022FA002220210A4801F01DFA0BE00122D8
:10053C001021074801F017FA01222021044801F08C
:10054C0012FA00E000BF00BF0837BD4680BD00BFF7
:10055C00000C014080B582B000AF78607B68032B43
:10056C003ED801A252F823F0850500089F0500082B
:10057C00D3050008B905000800224FF480611B4820
:10058C0001F0F1F900224FF48071194801F0EBF9F8
:10059C0027E001224FF48061144801F0E4F90022B5
:1005AC004FF48071124801F0DEF91AE000224FF48A
:1005BC0080610E4801F0D7F901224FF480710C488C
:1005CC0001F0D1F90DE001224FF48061074801F0F0
:1005DC00CAF901224FF48071054801F0C4F900E01A
:1005EC0000BF00BF0837BD4680BD00BF000C0140F6
:1005FC000008014080B483B000AF7860094A7B6882
:10060C0052F82330012B06D1064A7B68002142F8B0
:10061C002310012300E0002318460C37BD4680BC94
:10062C00704700BF2001002080B582B000AF786019
:10063C007B68032B2ED801A252F823F05906000830
:10064C006B0600087D0600088F060008022114487E
:10065C0001F072F903461A46124B1A601BE0102186
:10066C000F4801F069F903461A460E4B5A6012E026
:10067C0001210D4801F060F903461A46094B9A60B6
:10068C0009E00121064801F057F903461A46054BCB
:10069C00DA6000E000BF00BF0837BD4680BD00BF78
:1006AC000008014028000020000C014080B582B0F9
:1006BC0000AF00237B605DE0324A7B6852F8232058
:1006CC0031497B6841F82320304A7B6852F823205B
:1006DC002C497B6841F823207868FFF7A5FF2A4A4C
:1006EC007B6852F8232027497B6851F823309A42C3
:1006FC003DD1244A7B6852F8232024497B6851F869
:10070C0023309A4233D1224A7B6852F823201F4966
:10071C007B6851F823309A4217D01C4A7B6852F8F8
:10072C0023201B497B6841F82320184A7B6852F828
:10073C002330002B1BD1174A7B68012142F8231070
:10074C00154B4FF496721A6011E0134B1B68013B6A
:10075C00114A1360104B1B68002B08D10B4A7B68A5
:10076C0052F82330002B02D10B4B64221A607B68A9
:10077C0001337B607B68032B9EDD00BF00BF083715
:10078C00BD4680BD18000020080000202800002075
:10079C0038000020200100204800002080B582B0E5
:1007AC0000AF786000F0DAFB00F0F6FB00F02EFCF6
:1007BC00FFF77CFF00BF0837BD4680BD80B500AF9A
:1007CC0000F0C6FD00F048F800F058F900F086F88B
:1007DC0000F0D0F800F028F90021164801F0E8FDEF
:1007EC00154801F043FD4FF47A7000F09BFB134B5E
:1007FC0005221A60124B03221A60124B02221A6055
:10080C00114B05221A60114B00221A60104B012269
:10081C001A60104B0A221A604FF4FA7000F0DAFBDF
:10082C0000F0FEF9FFF78CFC00F092FA00F0A6F94C
:10083C00F6E700BF780100203001002010010020F5
:10084C0014010020180100200C0100201C010020C4
:10085C00000000200400002080B590B000AF07F12C
:10086C00180328220021184602F0E8FD3B1D002247
:10087C001A605A609A60DA601A610223BB61012324
:10088C00BB621023FB6202237B630023BB634FF428
:10089C006013FB6307F11803184601F07DF803465B
:1008AC00002B01D000F064F90F237B600223BB60A6
:1008BC000023FB604FF480633B6100237B613B1D95
:1008CC000221184601F0EAFA0346002B01D000F091
:1008DC004FF900BF4037BD4680BD000080B586B0E3
:1008EC0000AF07F1080300221A605A609A60DA60C0
:1008FC003B4600221A605A601D4B4FF080421A6032
:10090C001B4B3F225A601A4B00229A60184B42F242
:10091C000F72DA60164B00221A61154B00229A6195
:10092C00134801F053FC0346002B01D000F020F9D2
:10093C004FF48053BB6007F1080319460C4801F0D3
:10094C009FFF0346002B01D000F012F900233B60FF
:10095C0000237B603B461946054802F01DFB03460D
:10096C00002B01D000F004F900BF1837BD4680BD44
:10097C003001002080B58AB000AF07F120030022BF
:10098C001A605A603B1D00221A605A609A60DA6045
:10099C001A615A619A61224B224A1A60204B3F22FB
:1009AC005A601F4B00229A601D4B40F2E732DA600E
:1009BC001B4B00221A611A4B00229A61184801F055
:1009CC00A7FC0346002B01D000F0D2F800233B62B9
:1009DC0000237B6207F120031946114802F0DCFA70
:1009EC000346002B01D000F0C3F860237B6000238A
:1009FC00BB600023FB6000237B613B1D002219467A
:100A0C00074801F07FFE0346002B01D000F0B0F840
:100A1C00034800F08DFB00BF2837BD4680BD00BFEA
:100A2C00780100200004004080B500AF114B124A41
:100A3C001A60104B4FF416525A600E4B00229A60FB
:100A4C000C4B0022DA600B4B00221A61094B0C2272
:100A5C005A61084B00229A61064B0022DA61054864
:100A6C0002F00AFB0346002B01D000F081F800BF16
:100A7C0080BD00BFC00100200044004080B588B09C
:100A8C0000AF07F1100300221A605A609A60DA6016
:100A9C00344B9B69334A43F020039361314B9B6980
:100AAC0003F02003FB60FB682E4B9B692D4A43F03F
:100ABC00040393612B4B9B6903F00403BB60BB687D
:100ACC00284B9B69274A43F008039361254B9B698C
:100ADC0003F008037B607B6800224FF48761224897
:100AEC0000F041FF00224FF4A061204800F03BFFD2
:100AFC0013233B6100237B610123BB6107F11003CE
:100B0C0019461A4800F094FD01233B6100237B61D8
:100B1C000123BB6107F110031946134800F088FD4F
:100B2C004FF487633B6101237B610023BB6102238C
:100B3C00FB6107F1100319460B4800F079FD4FF4E7
:100B4C00A0633B6101237B610023BB610223FB613A
:100B5C0007F110031946054800F06AFD00BF203765
:100B6C00BD4680BD00100240000C01400008014051
:100B7C0080B400AF72B600BFFEE7000080B500AFD6
:100B8C00204B1B68072B3AD10120FFF733FD1E4B7E
:100B9C001B681846FFF74CFC0220FFF72BFD0346A1
:100BAC00002B04D0184B1B680133174A1360164BEB
:100BBC001B68032B03DD144B01221A601BE0002081
:100BCC00FFF718FD0346002B15D0104B1B681A4677
:100BDC000F49104802F03AFC03469AB24FF47A736C
:100BEC000C490D4802F095FA084B1B680B4A136030
:100BFC00044B01221A600120FFF7FCFC00E000BF4F
:100C0C0000BF80BD1C01002000000020100100204E
:100C1C009C3D0008D8000020C00100200C010020E1
:100C2C0080B500AF444B1B680C2B2FD00C2B79DC00
:100C3C000A2B02D00B2B56D074E00020FFF78AFC55
:100C4C000320FFF7D7FC0346002B6DD03B4B1B68F2
:100C5C00012B03D13A4B1B68022B0FDC374B1B6863
:100C6C00042B0BD0354B1B68072B0BD1354B1B685A
:100C7C00012B03D0334B1B68032B03D12E4B0C22BF
:100C8C001A6051E02C4B0B221A604DE00320FFF749
:100C9C0061FC2A4B1B68022B0BD0284B1B68052BC5
:100CAC0007D0264B1B68072B0AD1264B1B68022B3F
:100CBC0006D1214B0A221A60234B1B6800225A636F
:100CCC001D4B1B680C2B31D11D4B1B68642203FB85
:100CDC0002F21E4B1B6892FBF3F3C3F164021A4B36
:100CEC001B685A6322E00120FFF734FC134B1B688E
:100CFC00012B03D1124B1B68022B0FDC0F4B1B6813
:100D0C00042B0BD00D4B1B68072B11D10D4B1B6803
:100D1C00012B03D00B4B1B68032B09D1064B0C2268
:100D2C001A6005E000BF04E000BF02E000BF00E075
:100D3C0000BF00BF80BD00BF040000201C010020CC
:100D4C000C01002000000020780100201001002080
:100D5C0080B500AF694B1B68062B00F08980062B11
:100D6C0000F3C380042B02D0052B41D0BDE0022040
:100D7C00FFF740FC0120FFF75BFB0120FFF73AFC7B
:100D8C000346002B1AD05E4B1B6801335C4A136080
:100D9C005B4B1B68092B02DD594B01221A60584B27
:100DAC001B681A465749584802F050FB03469AB242
:100DBC004FF47A735449554802F0ABF90020FFF711
:100DCC0019FC0346002B00F092804C4B05221A6054
:100DDC004F4B1B681A464F494B4802F037FB0346F2
:100DEC009AB24FF47A734849484802F092F97EE07F
:100DFC000220FFF7FFFB0320FFF71AFB0120FFF790
:100E0C00F9FB0346002B1AD0414B1B680133404AB7
:100E1C0013603F4B1B68092B02DD3D4B01221A600E
:100E2C003B4B1B681A463B49374802F00FFB034605
:100E3C009AB24FF47A733449344802F06AF90020BC
:100E4C00FFF7D8FB0346002B53D0334B1B681A46D5
:100E5C0032492D4802F0FAFA03469AB24FF47A73EB
:100E6C0029492A4802F055F9244B06221A6040E021
:100E7C000220FFF7BFFB0220FFF7DAFA0120FFF791
:100E8C00B9FB0346002B1AD0234B1B680133224AB3
:100E9C001360214B1B68092B02DD1F4B01221A60CA
:100EAC001D4B1B681A461D49174802F0CFFA034622
:100EBC009AB24FF47A731449144802F02AF90020BC
:100ECC00FFF798FB0346002B15D015490E4802F08E
:100EDC00BDFA03469AB24FF47A730B490B4802F0F1
:100EEC0018F9064B07221A6005E000BF04E000BFAA
:100EFC0002E000BF00E000BF00BF80BD1C0100206D
:100F0C0010010020AC3D0008D8000020C0010020DA
:100F1C0014010020C03D000818010020D43D000839
:100F2C00E83D000880B483B000AF78607B68084A65
:100F3C0082FB03129210DB17D31A064A1360064B7E
:100F4C0000221A6000BF0C37BD4680BC704700BF42
:100F5C0067666666080200200402002080B483B035
:100F6C0000AF78600A4B1B68002B0BDD084B1B682D
:100F7C00013B074A1360064B1B68002B02DC054B38
:100F8C0001221A6000BF0C37BD4680BC704700BF01
:100F9C00080200200402002080B483B000AF786007
:100FAC000A4B1B68002B0BDD084B1B68013B074AE7
:100FBC001360064B1B68002B02DC054B01221A60E8
:100FCC0000BF0C37BD4680BC704700BF100200202C
:100FDC000C02002080B483B000AF78607B68084AB4
:100FEC0082FB03129210DB17D31A064A1360064BCE
:100FFC0000221A6000BF0C37BD4680BC704700BF92
:10100C0067666666180200201402002080B483B064
:10101C0000AF78600A4B1B68002B0BDD084B1B687C
:10102C00013B074A1360064B1B68002B02DC054B87
:10103C0001221A6000BF0C37BD4680BC704700BF50
:10104C00180200201402002080B485B000AF154BAC
:10105C009B69144A43F001039361124B9B6903F0A3
:10106C000103BB60BB680F4BDB690E4A43F0805336
:10107C00D3610C4BDB6903F080537B607B680A4BBC
:10108C005B68FB60FB6823F0E063FB60FB6843F08C
:10109C000073FB60044AFB68536000BF1437BD4605
:1010AC0080BC7047001002400000014080B584B045
:1010BC0000AF78607B681B68B3F1804F13D10C4B89
:1010CC00DB690B4A43F00103D361094BDB6903F085
:1010DC000103FB60FB68002200211C2000F071FA68
:1010EC001C2000F08AFA00BF1037BD4680BD00BF3F
:1010FC000010024080B485B000AF78607B681B683C
:10110C00094A93420BD1094BDB69084A43F00203AD
:10111C00D361064BDB6903F00203FB60FB6800BF85
:10112C001437BD4680BC70470004004000100240DC
:10113C0080B588B000AF786007F1100300221A6008
:10114C005A609A60DA607B681B680F4A934217D129
:10115C000E4B9B690D4A43F0040393610B4B9B6947
:10116C0003F00403FB60FB6840233B6102237B61BB
:10117C000223FB6107F110031946054800F058FAE9
:10118C0000BF2037BD4680BD000400400010024067
:10119C000008014080B588B000AF786007F11003FB
:1011AC0000221A605A609A60DA607B681B681B4ADE
:1011BC0093422FD11A4BDB69194A43F40033D361A4
:1011CC00174BDB6903F40033FB60FB68144B9B6922
:1011DC00134A43F004039361114B9B6903F004031E
:1011EC00BB60BB6804233B6102237B610323FB616F
:1011FC0007F1100319460B4800F01AFA08233B615B
:10120C0000237B610023BB6107F1100319460548DD
:10121C0000F00EFA00BF2037BD4680BD00440040F0
:10122C00001002400008014080B400AFFEE780B41B
:10123C0000AFFEE780B400AFFEE780B400AFFEE77E
:10124C0080B400AFFEE780B400AF00BFBD4680BCE9
:10125C00704780B400AF00BFBD4680BC704780B4FF
:10126C0000AF00BFBD4680BC704780B500AF00F03A
:10127C00B5F800BF80BD000080B500AF024801F09A
:10128C0039F900BF80BD00BF3001002080B586B0A9
:10129C0000AF7860144A154BD31A7B617B693B61B4
:1012AC00134B1B68002B02D1114B124A1A60104BC6
:1012BC001A687B6813443A699A4207D202F094F890
:1012CC0003460C221A604FF0FF3309E0084B1B68F1
:1012DC00FB60074B1A687B681344054A1360FB6874
:1012EC0018461837BD4680BD005000200004000091
:1012FC001C0200203802002080B400AF00BFBD46A5
:10130C0080BC70470C480D490D4A002302E0D458AC
:10131C00C4500433C4188C42F9D30A4A0A4C002333
:10132C0001E013600432A242FBD3FFF7E5FF02F0A9
:10133C0061F8FFF743FA704700000020BC00002062
:10134C00583E0008BC00002034020020FEE70000DC
:10135C0080B500AF084B1B68074A43F010031360BD
:10136C00032000F023F90F2000F008F8FFF76CFEC3
:10137C000023184680BD00BF0020024080B582B01B
:10138C0000AF7860124B1A68124B1B7819464FF459
:10139C007A73B3FBF1F3B2FBF3F3184600F03BF9AD
:1013AC000346002B01D001230EE07B680F2B0AD8DB
:1013BC00002279684FF0FF3000F003F9064A7B6891
:1013CC001360002300E0012318460837BD4680BD9A
:1013DC004C000020540000205000002080B400AFCE
:1013EC00054B1B781A46054B1B681344034A1360C4
:1013FC0000BFBD4680BC7047540000202002002076
:10140C0080B400AF024B1B681846BD4680BC7047C9
:10141C002002002080B485B000AF78607B6803F0B8
:10142C000703FB600C4BDB68BB60BA684FF6FF032D
:10143C001340BB60FB681A02BB68134343F0BF63E5
:10144C0043F40033BB60044ABB68D36000BF14375D
:10145C00BD4680BC704700BF00ED00E080B400AF1B
:10146C00044BDB681B0A03F007031846BD4680BC1F
:10147C00704700BF00ED00E080B483B000AF0346BE
:10148C00FB7197F90730002B0BDBFB7903F01F0284
:10149C00064997F907305B09012000FA02F241F87E
:1014AC00232000BF0C37BD4680BC704700E100E034
:1014BC0080B483B000AF03463960FB7197F90730F5
:1014CC00002B0ADB3B68DAB20C4997F907301201A2
:1014DC00D2B20B4483F800230AE03B68DAB2084925
:1014EC00FB7903F00F03043B1201D2B20B441A76C2
:1014FC0000BF0C37BD4680BC704700BF00E100E068
:10150C0000ED00E080B489B000AFF860B9607A609B
:10151C00FB6803F00703FB61FB69C3F10703042BB2
:10152C0028BF0423BB61FB690433062B02D9FB697A
:10153C00033B00E000237B614FF0FF32BB6902FAF2
:10154C0003F3DA43BB681A407B699A404FF0FF31D2
:10155C007B6901FA03F3D9437B680B4013431846AC
:10156C002437BD4680BC704780B582B000AF786030
:10157C007B68013BB3F1807F01D301230FE00A4A62
:10158C007B68013B53600F214FF0FF30FFF790FF5A
:10159C00054B00229A60044B07221A600023184660
:1015AC000837BD4680BD00BF10E000E080B582B0BA
:1015BC0000AF78607868FFF72DFF00BF0837BD4695
:1015CC0080BD80B586B000AF0346B9607A60FB730E
:1015DC0000237B61FFF742FF78617A68B96878690C
:1015EC00FFF790FF024697F90F3011461846FFF7A8
:1015FC005FFF00BF1837BD4680BD80B582B000AF1D
:10160C000346FB7197F907301846FFF735FF00BF0B
:10161C000837BD4680BD80B582B000AF7860786871
:10162C00FFF7A2FF034618460837BD4680BD0000F1
:10163C0080B48BB000AF7860396000237B620023EC
:10164C003B6269E101227B6A02FA03F3FB613B68AE
:10165C001B68FA691340BB61BA69FB699A4240F096
:10166C0058813B685B689A4A93425ED0984A934291
:10167C0075D8984A934258D0964A93426FD8964A56
:10168C00934252D0944A934269D8944A93424CD094
:10169C00924A934263D8924A934246D0904A9342DC
:1016AC005DD8122B2AD8122B59D801A252F823F04C
:1016BC0037170008111700082317000865170008D2
:1016CC006B1700086B1700086B1700086B170008E6
:1016DC006B1700086B1700086B1700086B170008D6
:1016EC006B1700086B1700086B1700086B170008C6
:1016FC006B170008191700082D170008794A934238
:10170C0013D02CE03B68DB683B6229E03B68DB686C
:10171C0004333B6224E03B68DB6808333B621FE028
:10172C003B68DB680C333B621AE03B689B68002B20
:10173C0002D104233B6213E03B689B68012B05D16B
:10174C0008233B627B68FA691A6109E008233B6253
:10175C007B68FA695A6103E000233B6200E000BF3A
:10176C00BB69FF2B01D87B6801E07B6804337B618C
:10177C00BB69FF2B02D87B6A9B0002E07B6A083BAB
:10178C009B003B617B691A680F213B6901FA03F3EB
:10179C00DB431A40396A3B6901FA03F31A437B694C
:1017AC001A603B685B6803F08053002B00F0B1803B
:1017BC004D4B9B694C4A43F0010393614A4B9B6927
:1017CC0003F00103BB60BB68484A7B6A9B08023389
:1017DC0052F82330FB607B6A03F003039B000F225B
:1017EC0002FA03F3DB43FA681340FB607B68404A60
:1017FC00934213D07B683F4A93420DD07B683E4A9C
:10180C00934207D07B683D4A934201D1032306E003
:10181C00042304E0022302E0012300E000237A6A9F
:10182C0002F0030292009340FA681343FB602F49C5
:10183C007B6A9B080233FA6841F823203B685B689B
:10184C0003F48033002B06D02D4B1A682C49BB694E
:10185C0013430B6006E02A4B1A68BB69DB4328492B
:10186C0013400B603B685B6803F40033002B06D01D
:10187C00234B5A682249BB6913434B6006E0204B4B
:10188C005A68BB69DB431E4913404B603B685B687D
:10189C0003F48013002B06D0194B9A681849BB69C6
:1018AC0013438B6006E0164B9A68BB69DB43144903
:1018BC0013408B603B685B6803F40013002B21D052
:1018CC000F4BDA680E49BB691343CB6021E000BFB4
:1018DC000000321000003110000022100000211016
:1018EC000000121000001110001002400000014016
:1018FC0000080140000C01400010014000140140A0
:10190C00000401400B4BDA68BB69DB430949134007
:10191C00CB607B6A01337B623B681A687B6A22FA74
:10192C0003F3002B7FF48EAE00BF00BF2C37BD46F7
:10193C0080BC70470004014080B485B000AF786073
:10194C000B467B807B689A687B881340002B02D007
:10195C000123FB7301E00023FB73FB7B1846143758
:10196C00BD4680BC704780B483B000AF78600B4636
:10197C007B8013467B707B78002B03D07A887B6846
:10198C001A6103E07B881A047B681A6100BF0C376C
:10199C00BD4680BC7047000080B586B000AF786053
:1019AC007B68002B01D1012372E27B681B6803F07A
:1019BC000103002B00F08780924B5B6803F00C0353
:1019CC00042B0CD08F4B5B6803F00C03082B12D14B
:1019DC008C4B5B6803F48033B3F5803F0BD1894BA0
:1019EC001B6803F40033002B6CD07B685B68002B06
:1019FC0068D101234CE27B685B68B3F5803F06D16C
:101A0C00804B1B687F4A43F4803313602EE07B6865
:101A1C005B68002B0CD17B4B1B687A4A23F4803318
:101A2C001360784B1B68774A23F4802313601DE006
:101A3C007B685B68B3F5A02F0CD1724B1B68714AA5
:101A4C0043F4802313606F4B1B686E4A43F480335E
:101A5C0013600BE06B4B1B686A4A23F480331360F2
:101A6C00684B1B68674A23F4802313607B685B68B0
:101A7C00002B13D0FFF7C4FC386108E0FFF7C0FC63
:101A8C0002463B69D31A642B01D9032300E25D4B58
:101A9C001B6803F40033002BF0D014E0FFF7B0FC0C
:101AAC00386108E0FFF7ACFC02463B69D31A642BA3
:101ABC0001D90323ECE1534B1B6803F40033002BD7
:101ACC00F0D100E000BF7B681B6803F00203002B21
:101ADC0063D04C4B5B6803F00C03002B0BD0494BD1
:101AEC005B6803F00C03082B1CD1464B5B6803F4BA
:101AFC008033002B16D1434B1B6803F00203002BE1
:101B0C0005D07B681B69012B01D00123C0E13D4B43
:101B1C001B6823F0F8027B685B69DB0039491343CF
:101B2C000B603AE07B681B69002B20D0364B0122FE
:101B3C001A60FFF765FC386108E0FFF761FC0246AC
:101B4C003B69D31A022B01D90323A1E12D4B1B684E
:101B5C0003F00203002BF0D02A4B1B6823F0F80291
:101B6C007B685B69DB00274913430B6015E0264B50
:101B7C0000221A60FFF744FC386108E0FFF740FCD4
:101B8C0002463B69D31A022B01D9032380E11D4B7A
:101B9C001B6803F00203002BF0D17B681B6803F079
:101BAC000803002B3AD07B689B69002B19D0174B8C
:101BBC0001221A60FFF724FC386108E0FFF720FCD3
:101BCC0002463B69D31A022B01D9032360E10D4B6A
:101BDC005B6A03F00203002BF0D0012000F0D8FA6E
:101BEC001CE00A4B00221A60FFF70AFC38610FE078
:101BFC00FFF706FC02463B69D31A022B08D90323D4
:101C0C0046E100BF00100240000042428004424204
:101C1C00924B5B6A03F00203002BE9D17B681B68D3
:101C2C0003F00403002B00F0A6800023FB758B4B04
:101C3C00DB6903F08053002B0DD1884BDB69874A9D
:101C4C0043F08053D361854BDB6903F08053BB6059
:101C5C00BB680123FB75824B1B6803F48073002B5C
:101C6C0018D17F4B1B687E4A43F480731360FFF7D7
:101C7C00C7FB386108E0FFF7C3FB02463B69D31A88
:101C8C00642B01D9032303E1754B1B6803F48073A8
:101C9C00002BF0D07B68DB68012B06D16F4B1B6AE5
:101CAC006E4A43F0010313622DE07B68DB68002B66
:101CBC000CD16A4B1B6A694A23F001031362674B10
:101CCC001B6A664A23F0040313621CE07B68DB6822
:101CDC00052B0CD1614B1B6A604A43F00403136261
:101CEC005E4B1B6A5D4A43F0010313620BE05B4BD6
:101CFC001B6A5A4A23F001031362584B1B6A574A5A
:101D0C0023F0040313627B68DB68002B15D0FFF70C
:101D1C0077FB38610AE0FFF773FB02463B69D31A85
:101D2C0041F28832934201D90323B1E04B4B1B6A39
:101D3C0003F00203002BEED014E0FFF761FB3861D7
:101D4C000AE0FFF75DFB02463B69D31A41F2883289
:101D5C00934201D903239BE0404B1B6A03F002031F
:101D6C00002BEED1FB7D012B05D13C4BDB693B4AB3
:101D7C0023F08053D3617B68DB69002B00F08780F4
:101D8C00364B5B6803F00C03082B61D07B68DB6976
:101D9C00022B46D1334B00221A60FFF731FB38611E
:101DAC0008E0FFF72DFB02463B69D31A022B01D941
:101DBC0003236DE0294B1B6803F00073002BF0D15B
:101DCC007B681B6AB3F5803F08D1244B5B6823F416
:101DDC0000327B689B68214913434B601F4B5B6847
:101DEC0023F474127B68196A7B685B6A0B431B498A
:101DFC0013434B601B4B01221A60FFF701FB386148
:101E0C0008E0FFF7FDFA02463B69D31A022B01D911
:101E1C0003233DE0114B1B6803F00073002BF0D043
:101E2C0035E0104B00221A60FFF7EAFA386108E03F
:101E3C00FFF7E6FA02463B69D31A022B01D90323BA
:101E4C0026E0064B1B6803F00073002BF0D11EE05C
:101E5C007B68DB69012B07D1012319E000100240DC
:101E6C0000700040600042420B4B5B68FB60FB68FB
:101E7C0003F480327B681B6A9A4206D1FB6803F438
:101E8C0070127B685B6A9A4201D0012300E0002348
:101E9C0018461837BD4680BD0010024080B584B08E
:101EAC0000AF786039607B68002B01D10123D0E052
:101EBC006A4B1B6803F007033A689A4210D9674BC8
:101ECC001B6823F0070265493B6813430B60634BA7
:101EDC001B6803F007033A689A4201D00123B8E06B
:101EEC007B681B6803F00203002B20D07B681B6807
:101EFC0003F00403002B05D0594B5B68584A43F49C
:101F0C00E06353607B681B6803F00803002B05D06B
:101F1C00534B5B68524A43F460535360504B5B68BD
:101F2C0023F0F0027B689B684D4913434B607B6840
:101F3C001B6803F00103002B40D07B685B68012B0E
:101F4C0007D1474B1B6803F40033002B15D1012339
:101F5C007FE07B685B68022B07D1414B1B6803F069
:101F6C000073002B09D1012373E03D4B1B6803F078
:101F7C000203002B01D101236BE0394B5B6823F08A
:101F8C0003027B685B68364913434B60FFF738FAF2
:101F9C00F8600AE0FFF734FA0246FB68D31A41F204
:101FAC008832934201D9032353E02D4B5B6803F035
:101FBC000C027B685B689B009A42EBD1274B1B6839
:101FCC0003F007033A689A4210D2244B1B6823F0A3
:101FDC00070222493B6813430B60204B1B6803F03C
:101FEC0007033A689A4201D0012332E07B681B68F0
:101FFC0003F00403002B08D0194B5B6823F4E06258
:10200C007B68DB68164913434B607B681B6803F0E5
:10201C000803002B09D0124B5B6823F460527B68D9
:10202C001B69DB000E4913434B6000F021F802469C
:10203C000B4B5B681B0903F00F030A49CB5C22FABC
:10204C0003F3094A1360094B1B681846FFF796F90E
:10205C00002318461037BD4680BD00BF002002404B
:10206C0000100240043E00084C00002050000020EC
:10207C0090B48AB000AF294B3C1D0FCB84E80F0005
:10208C0040F201233B800023FB610023BB61002352
:10209C007B6200237B6100233B62214B5B68FB610D
:1020AC00FB6903F00C03042B02D0082B03D02BE0AC
:1020BC001C4B3B622BE0FB699B0C03F00F0328339A
:1020CC003B4413F8243C7B61FB6903F48033002B05
:1020DC0012D0134B5B685B0C03F0010328333B44B9
:1020EC0013F8283CBB617B690E4A03FB02F2BB6907
:1020FC00B2FBF3F37B6204E07B690B4A02FB03F354
:10210C007B627B6A3B6202E0064B3B6200BF3B6A30
:10211C0018462837BD4690BC704700BFF43D0008F8
:10212C000010024000127A0000093D0080B400AF9C
:10213C00024B1B681846BD4680BC70474C00002003
:10214C0080B500AFFFF7F2FF0246054B5B681B0A38
:10215C0003F007030349CB5C22FA03F3184680BD56
:10216C0000100240143E000880B500AFFFF7DEFF00
:10217C000246054B5B68DB0A03F007030349CB5CA3
:10218C0022FA03F3184680BD00100240143E0008EA
:10219C0080B485B000AF78600A4B1B680A4AA2FB7A
:1021AC0003235B0A7A6802FB03F3FB6000BFFB6846
:1021BC005A1EFA60002BF9D100BF00BF1437BD4680
:1021CC0080BC70474C000020D34D621080B582B0AB
:1021DC0000AF78607B68002B01D1012341E07B6864
:1021EC0093F83D30DBB2002B06D17B68002283F8DC
:1021FC003C207868FEF75AFF7B68022283F83D206A
:10220C007B681A687B6804331946104600F020FC82
:10221C007B68012283F846207B68012283F83E20EC
:10222C007B68012283F83F207B68012283F84020E1
:10223C007B68012283F841207B68012283F84220CD
:10224C007B68012283F843207B68012283F84420B9
:10225C007B68012283F845207B68012283F83D20AE
:10226C00002318460837BD4680BD000080B485B0F9
:10227C0000AF78607B6893F83D30DBB2012B01D066
:10228C0001233AE07B68022283F83D207B681B68BF
:10229C00DA687B681B6842F00102DA607B681B68B5
:1022AC00184A93420ED07B681B68B3F1804F09D05B
:1022BC007B681B68144A934204D07B681B68134AE2
:1022CC00934211D17B681B689B6803F00703FB608A
:1022DC00FB68062B10D07B681B681A687B681B6830
:1022EC0042F001021A6007E07B681B681A687B6881
:1022FC001B6842F001021A60002318461437BD46D1
:10230C0080BC7047002C01400004004000080040D5
:10231C0080B582B000AF78607B68002B01D10123BF
:10232C0041E07B6893F83D30DBB2002B06D17B6833
:10233C00002283F83C207868FEF7DCFE7B680222E2
:10234C0083F83D207B681A687B6804331946104675
:10235C0000F07EFB7B68012283F846207B6801221B
:10236C0083F83E207B68012283F83F207B680122A2
:10237C0083F840207B68012283F841207B6801228E
:10238C0083F842207B68012283F843207B6801227A
:10239C0083F844207B68012283F845207B68012266
:1023AC0083F83D20002318460837BD4680BD000049
:1023BC0080B584B000AF786039603B68002B09D1E0
:1023CC007B6893F83E30DBB2012B14BF0123002352
:1023DC00DBB222E03B68042B09D17B6893F83F30D9
:1023EC00DBB2012B14BF01230023DBB215E03B68E9
:1023FC00082B09D17B6893F84030DBB2012B14BF5A
:10240C0001230023DBB208E07B6893F84130DBB298
:10241C00012B14BF01230023DBB2002B01D00123BD
:10242C005EE03B68002B04D17B68022283F83E20DF
:10243C0013E03B68042B04D17B68022283F83F2015
:10244C000BE03B68082B04D17B68022283F8402008
:10245C0003E07B68022283F841207B681B68012221
:10246C003968184600F074FD7B681B681E4A93425D
:10247C0007D17B681B685A6C7B681B6842F400426E
:10248C005A647B681B68184A93420ED07B681B68A1
:10249C00B3F1804F09D07B681B68144A934204D077
:1024AC007B681B68124A934211D17B681B689B683E
:1024BC0003F00703FB60FB68062B10D07B681B68DE
:1024CC001A687B681B6842F001021A6007E07B689F
:1024DC001B681A687B681B6842F001021A600023B3
:1024EC0018461037BD4680BD002C0140000400404A
:1024FC000008004080B582B000AF78607B681B6834
:10250C001B6903F00203022B22D17B681B68DB687A
:10251C0003F00203022B1BD17B681B686FF00202D5
:10252C001A617B6801221A777B681B689B6903F030
:10253C000303002B03D0786800F06FFA05E078688D
:10254C0000F062FA786800F071FA7B6800221A7762
:10255C007B681B681B6903F00403042B22D17B6886
:10256C001B68DB6803F00403042B1BD17B681B681E
:10257C006FF004021A617B6802221A777B681B6871
:10258C009B6903F44073002B03D0786800F045FA84
:10259C0005E0786800F038FA786800F047FA7B6854
:1025AC0000221A777B681B681B6903F00803082B51
:1025BC0022D17B681B68DB6803F00803082B1BD156
:1025CC007B681B686FF008021A617B6804221A771B
:1025DC007B681B68DB6903F00303002B03D078686E
:1025EC0000F01BFA05E0786800F00EFA786800F04D
:1025FC001DFA7B6800221A777B681B681B6903F045
:10260C001003102B22D17B681B68DB6803F01003CE
:10261C00102B1BD17B681B686FF010021A617B6852
:10262C0008221A777B681B68DB6903F44073002B64
:10263C0003D0786800F0F1F905E0786800F0E4F96F
:10264C00786800F0F3F97B6800221A777B681B68C6
:10265C001B6903F00103012B0ED17B681B68DB683F
:10266C0003F00103012B07D17B681B686FF001029B
:10267C001A617868FEF792F87B681B681B6903F097
:10268C008003802B0ED17B681B68DB6803F0800312
:10269C00802B07D17B681B686FF080021A61786809
:1026AC0000F0E1FC7B681B681B6903F04003402BC6
:1026BC000ED17B681B68DB6803F04003402B07D10D
:1026CC007B681B686FF040021A61786800F0B7F9FC
:1026DC007B681B681B6903F02003202B0ED17B68E1
:1026EC001B68DB6803F02003202B07D17B681B6879
:1026FC006FF020021A61786800F0ACFC00BF08375C
:10270C00BD4680BD80B584B000AFF860B9607A601A
:10271C00FB6893F83C30012B01D10223ACE0FB6841
:10272C00012283F83C207B680C2B00F29F8001A2D5
:10273C0052F823F07527000879280008792800083A
:10274C0079280008B527000879280008792800089E
:10275C0079280008F727000879280008792800084C
:10276C007928000837280008FB681B68B9681846E8
:10277C0000F0D0F9FB681B689A69FB681B6842F093
:10278C0008029A61FB681B689A69FB681B6822F057
:10279C0004029A61FB681B689969BB681A69FB683B
:1027AC001B680A439A6162E0FB681B68B9681846AB
:1027BC0000F016FAFB681B689A69FB681B6842F408
:1027CC0000629A61FB681B689A69FB681B6822F4BB
:1027DC0080629A61FB681B689969BB681B691A0265
:1027EC00FB681B680A439A6141E0FB681B68B96887
:1027FC00184600F05FFAFB681B68DA69FB681B6817
:10280C0042F00802DA61FB681B68DA69FB681B6836
:10281C0022F00402DA61FB681B68D969BB681A698B
:10282C00FB681B680A43DA6121E0FB681B68B96826
:10283C00184600F0A9FAFB681B68DA69FB681B688C
:10284C0042F40062DA61FB681B68DA69FB681B689A
:10285C0022F48062DA61FB681B68D969BB681B696A
:10286C001A02FB681B680A43DA6100E000BFFB68D0
:10287C00002283F83C20002318461037BD4680BD4B
:10288C0080B584B000AF786039607B6893F83C30D9
:10289C00012B01D10223B3E07B68012283F83C2099
:1028AC007B68022283F83D207B681B689B68FB6079
:1028BC00FB6823F07703FB60FB6823F47F43FB602A
:1028CC007B681B68FA689A603B681B68B3F5005F0D
:1028DC003ED0B3F5005F00F28780B3F5805F00F067
:1028EC008580B3F5805F7FD8702B1AD0702B7BD886
:1028FC00602B50D0602B77D8502B3CD0502B73D8FA
:10290C00402B58D0402B6FD8302B64D0302B6BD849
:10291C00202B60D0202B67D8002B5CD0102B5AD0EA
:10292C0062E07B6818683B6899683B685A683B684A
:10293C00DB6800F0EEFA7B681B689B68FB60FB6849
:10294C0043F07703FB607B681B68FA689A604EE083
:10295C007B6818683B6899683B685A683B68DB6819
:10296C0000F0D7FA7B681B689A687B681B6842F496
:10297C0080429A603BE07B6818683B6859683B680A
:10298C00DB681A4600F04EFA7B681B68502118462B
:10299C0000F0A5FA2BE07B6818683B6859683B6827
:1029AC00DB681A4600F06CFA7B681B6860211846DD
:1029BC0000F095FA1BE07B6818683B6859683B6827
:1029CC00DB681A4600F02EFA7B681B68402118461B
:1029DC0000F085FA0BE07B681A683B681B681946A7
:1029EC00104600F07CFA02E000BF00E000BF7B68FC
:1029FC00012283F83D207B68002283F83C200023D1
:102A0C0018461037BD4680BD80B483B000AF7860E7
:102A1C0000BF0C37BD4680BC704780B483B000AF9C
:102A2C00786000BF0C37BD4680BC704780B483B063
:102A3C0000AF786000BF0C37BD4680BC704780B4D7
:102A4C0083B000AF786000BF0C37BD4680BC7047C8
:102A5C0080B485B000AF786039607B681B68FB6020
:102A6C007B68294A93420BD07B68B3F1804F07D027
:102A7C007B68264A934203D07B68254A934208D14F
:102A8C00FB6823F07003FB603B685B68FA681343D8
:102A9C00FB607B681C4A93420BD07B68B3F1804F80
:102AAC0007D07B68194A934203D07B68184A93423B
:102ABC0008D1FB6823F44073FB603B68DB68FA6861
:102ACC001343FB60FB6823F080023B685B69134394
:102ADC00FB607B68FA681A603B689A687B68DA620C
:102AEC003B681A687B689A627B68074A934203D1F9
:102AFC003B681A697B681A637B6801225A6100BFC4
:102B0C001437BD4680BC7047002C014000040040C7
:102B1C000008004080B487B000AF786039607B68F3
:102B2C001B6A23F001027B681A627B681B6A7B615B
:102B3C007B685B683B617B689B69FB60FB6823F08F
:102B4C007003FB60FB6823F00303FB603B681B68AE
:102B5C00FA681343FB607B6923F002037B613B68DB
:102B6C009B687A6913437B617B681C4A93420CD146
:102B7C007B6923F008037B613B68DB687A6913434C
:102B8C007B617B6923F004037B617B68134A93426E
:102B9C0011D13B6923F480733B613B6923F40073CF
:102BAC003B613B685B693A6913433B613B689B69DA
:102BBC003A6913433B617B683A695A607B68FA68EF
:102BCC009A613B685A687B685A637B687A691A62B7
:102BDC0000BF1C37BD4680BC704700BF002C0140B5
:102BEC0080B487B000AF786039607B681B6A23F0D3
:102BFC0010027B681A627B681B6A7B617B685B686E
:102C0C003B617B689B69FB60FB6823F4E043FB60E2
:102C1C00FB6823F44073FB603B681B681B02FA687B
:102C2C001343FB607B6923F020037B613B689B684B
:102C3C001B017A6913437B617B681D4A93420DD15A
:102C4C007B6923F080037B613B68DB681B017A693D
:102C5C0013437B617B6923F040037B617B68144ADF
:102C6C00934213D13B6923F480633B613B6923F4AA
:102C7C0000633B613B685B699B003A6913433B61B2
:102C8C003B689B699B003A6913433B617B683A69DB
:102C9C005A607B68FA689A613B685A687B689A63E9
:102CAC007B687A691A6200BF1C37BD4680BC7047CE
:102CBC00002C014080B487B000AF786039607B682D
:102CCC001B6A23F480727B681A627B681B6A7B61C7
:102CDC007B685B683B617B68DB69FB60FB6823F0AE
:102CEC007003FB60FB6823F00303FB603B681B680D
:102CFC00FA681343FB607B6923F400737B613B68C8
:102D0C009B681B027A6913437B617B681D4A934263
:102D1C000DD17B6923F400637B613B68DB681B028C
:102D2C007A6913437B617B6923F480637B617B68E5
:102D3C00144A934213D13B6923F480533B613B69A2
:102D4C0023F400533B613B685B691B013A691343F5
:102D5C003B613B689B691B013A6913433B617B6890
:102D6C003A695A607B68FA68DA613B685A687B6832
:102D7C00DA637B687A691A6200BF1C37BD4680BC77
:102D8C00704700BF002C014080B487B000AF786062
:102D9C0039607B681B6A23F480527B681A627B68FB
:102DAC001B6A3B617B685B687B617B68DB69FB60F2
:102DBC00FB6823F4E043FB60FB6823F44073FB6087
:102DCC003B681B681B02FA681343FB603B6923F4E6
:102DDC0000533B613B689B681B033A6913433B619F
:102DEC007B680F4A934209D17B6923F480437B6152
:102DFC003B685B699B017A6913437B617B687A69E9
:102E0C005A607B68FA68DA613B685A687B681A64B6
:102E1C007B683A691A6200BF1C37BD4680BC70479C
:102E2C00002C014080B487B000AFF860B9607A60C4
:102E3C00FB681B6A7B61FB681B6A23F00102FB6861
:102E4C001A62FB689B693B613B6923F0F0033B61B1
:102E5C007B681B013A6913433B617B6923F00A03CE
:102E6C007B617A69BB6813437B61FB683A699A6141
:102E7C00FB687A691A6200BF1C37BD4680BC70477C
:102E8C0080B487B000AFF860B9607A60FB681B6AE9
:102E9C0023F01002FB681A62FB689B697B61FB687C
:102EAC001B6A3B617B6923F470437B617B681B036A
:102EBC007A6913437B613B6923F0A0033B61BB68D8
:102ECC001B013A6913433B61FB687A699A61FB68A1
:102EDC003A691A6200BF1C37BD4680BC704780B48B
:102EEC0085B000AF786039607B689B68FB60FB68DD
:102EFC0023F07003FB603A68FB68134343F007034D
:102F0C00FB607B68FA689A6000BF1437BD4680BCD2
:102F1C00704780B487B000AFF860B9607A603B60EE
:102F2C00FB689B687B617B6923F47F437B613B6817
:102F3C001A027B681A43BB6813437A6913437B619B
:102F4C00FB687A699A6000BF1C37BD4680BC70472D
:102F5C0080B487B000AFF860B9607A60BB6803F0EA
:102F6C001F03012202FA03F37B61FB681A6A7B6977
:102F7C00DB431A40FB681A62FB681A6ABB6803F0F1
:102F8C001F03796801FA03F31A43FB681A6200BF46
:102F9C001C37BD4680BC704780B485B000AF7860EC
:102FAC0039607B6893F83C30012B01D1022346E059
:102FBC007B68012283F83C207B68022283F83D2049
:102FCC007B681B685B68FB607B681B689B68BB60ED
:102FDC00FB6823F07003FB603B681B68FA681343C3
:102FEC00FB607B681B68FA685A607B681B68164A32
:102FFC0093420ED07B681B68B3F1804F09D07B687D
:10300C001B68124A934204D07B681B68104A934297
:10301C000CD1BB6823F08003BB603B685B68BA686B
:10302C001343BB607B681B68BA689A607B6801229B
:10303C0083F83D207B68002283F83C20002318464F
:10304C001437BD4680BC7047002C01400004004082
:10305C000008004080B483B000AF786000BF0C372C
:10306C00BD4680BC704780B483B000AF786000BFB1
:10307C000C37BD4680BC704780B582B000AF78601D
:10308C007B68002B01D101233FE07B6893F83D3036
:10309C00DBB2002B06D17B68002283F83C207868D9
:1030AC00FEF778F87B68242283F83D207B681B6848
:1030BC00DA687B681B6822F40052DA60786800F0EA
:1030CC0005F97B681B681A697B681B6822F49042BF
:1030DC001A617B681B685A697B681B6822F02A029C
:1030EC005A617B681B68DA687B681B6842F4005283
:1030FC00DA607B6800221A647B68202283F83D200A
:10310C007B68202283F83E20002318460837BD46F2
:10311C0080BD80B58AB002AFF860B9603B601346E1
:10312C00FB8000237B61FB6893F83D30DBB2202BE6
:10313C007CD1BB68002B02D0FB88002B01D1012372
:10314C0075E0FB6893F83C30012B01D102236EE053
:10315C00FB68012283F83C20FB6800221A64FB68A0
:10316C00212283F83D20FEF74BF97861FB68FA8841
:10317C009A84FB68FA88DA84FB689B68B3F5805FF5
:10318C0008D1FB681B69002B04D10023FB61BB68D1
:10319C00BB6103E0BB68FB610023BB61FB680022E1
:1031AC0083F83C202AE03B6800937B690022802155
:1031BC00F86800F040F80346002B01D0032336E0FA
:1031CC00FB69002B0BD1BB691B881A46FB681B687B
:1031DC00C2F308025A60BB690233BB6107E0FB69AA
:1031EC001A78FB681B685A60FB690133FB61FB684A
:1031FC00DB8C9BB2013B9AB2FB68DA84FB68DB8CFC
:10320C009BB2002BCFD13B6800937B6900224021FD
:10321C00F86800F010F80346002B01D0032306E0F9
:10322C00FB68202283F83D20002300E0022318468F
:10323C002037BD4680BD80B584B000AFF860B96062
:10324C003B601346FB712CE0BB69B3F1FF3F28D008
:10325C00BB69002B07D0FEF7D3F802463B68D31AA4
:10326C00BA699A421DD2FB681B68DA68FB681B6856
:10327C0022F4D072DA60FB681B685A69FB681B6821
:10328C0022F001025A61FB68202283F83D20FB6882
:10329C00202283F83E20FB68002283F83C20032385
:1032AC000FE0FB681B681A68BB681340BA689A4247
:1032BC000CBF01230023DBB21A46FB799A42C3D020
:1032CC00002318461037BD4680BD000080B584B081
:1032DC0000AF78607B681B681B6923F440517B68E6
:1032EC00DA687B681B680A431A617B689A687B689A
:1032FC001B691A437B685B691343BB607B681B6863
:10330C00DB6823F4B05323F00C037A681268B968B5
:10331C000B43D3607B681B685B6923F440717B684B
:10332C009A697B681B680A435A617B681B682C4A44
:10333C00934203D1FEF718FFF86002E0FEF700FF9E
:10334C00F860FA6813469B0013449A001A447B6891
:10335C005B689B00B2FBF3F3224AA2FB03235B09DD
:10336C001901FA6813469B0013449A001A447B68AF
:10337C005B689B00B2FBF3F21A4BA3FB02035B09E5
:10338C00642000FB03F3D31A1B013233154AA2FB52
:10339C0003235B0903F0F0031944FA6813469B00FE
:1033AC0013449A001A447B685B689B00B2FBF3F2EF
:1033BC000C4BA3FB02035B09642000FB03F3D31A41
:1033CC001B013233074AA2FB03235B0903F00F02F4
:1033DC007B681B680A449A6000BF1037BD4680BDED
:1033EC00003801401F85EB51014B1868704700BF36
:1033FC005800002070B500260C4D0D4C641BA41019
:10340C00A64209D100F09CFC00260A4D0A4C641B14
:10341C00A410A64205D170BD55F8043B984701365F
:10342C00EEE755F8043B98470136F2E7503E0008AA
:10343C00503E0008503E0008543E0008034602442B
:10344C00934200D1704703F8011BF9E70EB46FF0FB
:10345C00004100B59CB01DAB029006900791049101
:10346C000848094953F8042B0591006802A90193F7
:10347C0000F068F80022029B1A701CB05DF804EB97
:10348C0003B07047580000200802FFFF2DE9F047F9
:10349C008E6882469E420C4690461F4638D88A89D2
:1034AC0012F4906F32D0256809690133A5EB01093C
:1034BC0065694B4405EB450505EBD5756D109D42D3
:1034CC0038BF1D46530531D5294600F06FFB064623
:1034DC0050B90C234FF0FF30CAF80030A38943F0E9
:1034EC004003A381BDE8F0874A46216900F0CEFA7B
:1034FC00A38923F4906343F08003A38126614E4497
:10350C0026603E466561A5EB0905A560BE4200D963
:10351C003E4632464146206800F0C6FAA3680020B9
:10352C009B1BA360236833442360DBE72A4600F02F
:10353C00B1FB06460028E1D15046216900F0CEFAD5
:10354C00C7E700002DE9F04F98468B8907461B060C
:10355C000D4614469DB00ED50B6963B9402100F0A1
:10356C0025FB2860286120B90C233B604FF0FF300D
:10357C00D1E040236B610023099320238DF829307F
:10358C0030234FF00109CDF80C80DFF8A4818DF8C1
:10359C002A3023469A4613F8012B0AB1252AF9D171
:1035AC00BAEB040B0BD05B46224629463846FFF794
:1035BC006DFF013000F0AA80099A5A4409929AF8DA
:1035CC000030002B00F0A28000234FF0FF32CDE939
:1035DC0005230AF1010A049307938DF853301A93CB
:1035EC005446052214F8011B514800F041FA049A84
:1035FC00D8B9D00644BF20238DF85330110744BFEF
:10360C002B238DF853309AF800302A2B15D05446C2
:10361C0000204FF00A0C079A214611F8013B303B71
:10362C00092B4ED9B0B1079214E0A0EB080309FAAC
:10363C0003F31343A2460493D2E7039B191D1B68A3
:10364C000391002BBBBF5B4242F00202079307932E
:10365C00B8BF049223782E2B0CD163782A2B35D14A
:10366C00039B02341A1D1B680392002BB8BF4FF04A
:10367C00FF330593DFF8BCA003225046217800F0FD
:10368C00F7F940B14023A0EB0A0003FA00F0049BC9
:10369C0001340343049314F8011B062226488DF8C9
:1036AC00281000F0E5F9002838D0244B1BBB039BF5
:1036BC00073323F0070308330393099B334409931F
:1036CC0067E70C4601200CFB0232A5E700234FF004
:1036DC000A0C194601340593204610F8012B303A98
:1036EC00092A03D9002BC5D00591C3E70446012351
:1036FC000CFB0121F0E703AB00932A463846104B34
:10370C0004A9AFF30080421C0646D6D1AB895B06F8
:10371C003FF52CAF09981DB0BDE8F08F03AB0093BB
:10372C002A463846064B04A900F07CF8EBE700BFAC
:10373C001C3E0008223E0008263E00080000000047
:10374C00993400082DE9F047164699468A680B69AA
:10375C0007469342B8BF1346336091F843200C469A
:10376C00DDF820800AB1013333602368990642BF2B
:10377C00336802333360256815F0060506D104F171
:10378C00190AE36832689B1AAB4228DC94F8432090
:10379C00131E226818BF012392062DD449463846C1
:1037AC0004F14302C047013020D02368E56803F0E0
:1037BC000603042B18BF002532684FF00006A368DF
:1037CC0008BFAD1A226908BF25EAE5759342C4BF4C
:1037DC009B1AED181A34B5421AD1002008E00123C7
:1037EC00524649463846C047013003D14FF0FF30AE
:1037FC00BDE8F0870135C4E73020E11881F84300BB
:10380C005A1C94F845102244023382F84310C5E741
:10381C000123224649463846C0470130E6D00136DE
:10382C00D9E700002DE9FF470F7E9146782F80469F
:10383C000C469A460C9D01F1430207D8622F0AD818
:10384C00002F00F0D980582F00F0A48004F142051D
:10385C0084F842703AE0A7F16303152BF6D801A166
:10386C0051F823F0C9380008DD3800085938000831
:10387C00593800085938000859380008DD38000854
:10388C0059380008593800085938000859380008C8
:10389C00EB3900080D390008CD39000859380008FB
:1038AC00593800080D3A0008593800080D3900083D
:1038BC005938000859380008D53900082B681A1DEA
:1038CC001B682A6004F1420584F842300123A4E00D
:1038DC0020682968060601F104030AD50E682B60DE
:1038EC00002E03DA2D23764284F843300A235E48F7
:1038FC0019E00E6810F0400F2B6018BF36B2EFE7DE
:10390C002B682068191D2960010601D51E6802E08C
:10391C004606FBD51E886F2F0CBF08230A2352487E
:10392C00002184F843106568002DA8BF2168A560AC
:10393C00A4BF21F0040121600EB9002D4DD0154615
:10394C00B6FBF3F103FB1167C75D05F8017D374644
:10395C00BB420E46F4D9082B0BD12368DE0708D5E1
:10396C00236961689942DEBF302305F8013C05F1FB
:10397C00FF35521B22614B4621464046CDF800A034
:10398C0003AAFFF7DFFE01304CD14FF0FF3004B03B
:10399C00BDE8F087344881F845702968236851F8F0
:1039AC00046B29601D0614D5DF0744BF43F02003C8
:1039BC0023601EB9236823F0200323601023AFE794
:1039CC00236843F0200323607823284884F845308B
:1039DC00E3E7590648BFB6B2E6E71546BBE72B68E6
:1039EC002668181D6169286035061B6801D51960A9
:1039FC0002E07006FBD51980002315462361BAE757
:103A0C002B6800211A1D2A601D686268284600F088
:103A1C002FF808B1401B606063682361002384F8B1
:103A2C004330A8E72A46494640462369D04701302F
:103A3C00ABD023689B0713D4E068039B9842B8BFB4
:103A4C001846A4E70123324649464046D047013088
:103A5C009BD00135E36803995B1AAB42F2DCEBE7D0
:103A6C00002504F11906F5E72D3E00083E3E00083E
:103A7C00034610B5C9B202449342184601D1002046
:103A8C0003E0047801338C42F6D110BD0A44914214
:103A9C0000F1FF3300D1704710B511F8014B914282
:103AAC0003F8014FF9D110BD884210B501EB0204A7
:103ABC0002D98442234607D8431EA14208D011F8EC
:103ACC00012B03F8012FF8E7014602448A4200D18A
:103ADC0010BD13F8014D02F8014DF7E738B5054656
:103AEC00002940D051F8043C0C1F002BB8BFE4183F
:103AFC0000F010F91C4A136833B96360146028464F
:103B0C00BDE8384000F00CB9A34208D92068211850
:103B1C008B4201BF19685B6809182160EDE71A46F2
:103B2C005B680BB1A342FAD911685018A0420BD1B3
:103B3C0020680144501883421160E0D118685B681A
:103B4C00014411605360DAE702D90C232B60D6E7ED
:103B5C00206821188B4201BF19685B680918216025
:103B6C0063605460CBE738BD2402002070B50E4E64
:103B7C000C463168054611B900F0BCF8306021469E
:103B8C00284600F0B7F8431C0AD0C41C24F00304E8
:103B9C00A04207D0211A284600F0ACF8013001D120
:103BAC004FF0FF34204670BD280200202DE9F04173
:103BBC00CD1C25F0030508350C2D38BF0C25002D28
:103BCC00074601DBA94205D90C2300263B60304691
:103BDC00BDE8F0812E4E00F09DF833681C4634BBD6
:103BEC0029463846FFF7C2FF431C04464DD13468C2
:103BFC002646002E40D123683146384604EB030894
:103C0C0000F078F880453AD1216803356D1A25F01B
:103C1C00030508350C2D38BF0C2538462946FFF70F
:103C2C00A5FF01302BD023682B4423600EE02268C3
:103C3C00521B1ED40B2A16D96119A342256018BF3A
:103C4C005960636808BF316062514B60384604F1BB
:103C5C000B0600F065F826F00706231DF21AB6D005
:103C6C009B1BA350B3E76268A3420CBF32605A603F
:103C7C00ECE723466468B2E734467668B9E70C2370
:103C8C0038463B6000F04CF8A1E72560DEE700BF4A
:103C9C00240200202DE9F041804614460E4621B93D
:103CAC001146BDE8F041FFF781BF2AB9FFF716FFB7
:103CBC0025462846BDE8F08100F038F884420746D6
:103CCC0002D8B4EB500F12D821464046FFF76EFFD6
:103CDC0005460028EDD0BC422246314628BF3A4664
:103CEC00FFF7D4FE31464046FFF7F8FEE1E73546D4
:103CFC00DFE7000038B50023054D044608462B606D
:103D0C00FDF7C4FA431C02D12B6803B1236038BD04
:103D1C002C020020014800F011B800BF3002002036
:103D2C00014800F00CB800BF3002002051F8043CF0
:103D3C00181F002BBCBF0B58C0187047704770473A
:103D4C00F8B500BFF8BC08BC9E467047F8B500BF7C
:083D5C00F8BC08BC9E4670474C
:103D64007265643D25640D0A000000006772656594
:103D74006E3D25640D0A000073657474696E675F97
:103D84007265643D25640D0A0000000079656C6C61
:103D94006F773D25640D0A006175746F5F72656409
:103DA4003D25640D0A00000073657474696E675FD5
:103DB4007265643D25640D0A000000007365747427
:103DC400696E675F677265656E3D25640D0A000064
:103DD40073657474696E675F79656C6C6F773D2584
:103DE400640D0A006D616E75616C0D0A00000000BF
:103DF40002030405060708090A0B0C0D0E0F101028
:103E04000000000000000000010203040607080986
:103E14000000000001020304232D302B2000686CF5
:103E24004C006566674546470030313233343536D9
:103E34003738394142434445460030313233343512
:0C3E44003637383961626364656600003F
:043E50003101000834
:043E54000D01000854
:103E5800010000000A00000001000000000000004E
:103E68000000000000000000010000000000000049
:103E78000000000000000000010000000000000039
:103E88000000000000000000010000000000000029
:103E980000000000000000002C0100000024F400D5
:103EA80010000000010000005C000020000000007D
:103EB80000000000000000000000000000000000FA
:103EC80000000000000000000000000000000000EA
:103ED80000000000000000000000000000000000DA
:103EE80000000000000000000000000000000000CA
:103EF80000000000000000000000000000000000BA
:0C3F0800000000000000000000000000AD
:0400000508001311CB
:00000001FF
